{
  "_format": "hh-sol-artifact-1",
  "contractName": "MockERC721",
  "sourceName": "contracts/MockERC721.sol",
  "abi": [
    {
      "inputs": [
        {
          "internalType": "string",
          "name": "name",
          "type": "string"
        },
        {
          "internalType": "string",
          "name": "symbol",
          "type": "string"
        }
      ],
      "stateMutability": "nonpayable",
      "type": "constructor"
    },
    {
      "anonymous": false,
      "inputs": [
        {
          "indexed": true,
          "internalType": "address",
          "name": "owner",
          "type": "address"
        },
        {
          "indexed": true,
          "internalType": "address",
          "name": "approved",
          "type": "address"
        },
        {
          "indexed": true,
          "internalType": "uint256",
          "name": "tokenId",
          "type": "uint256"
        }
      ],
      "name": "Approval",
      "type": "event"
    },
    {
      "anonymous": false,
      "inputs": [
        {
          "indexed": true,
          "internalType": "address",
          "name": "owner",
          "type": "address"
        },
        {
          "indexed": true,
          "internalType": "address",
          "name": "operator",
          "type": "address"
        },
        {
          "indexed": false,
          "internalType": "bool",
          "name": "approved",
          "type": "bool"
        }
      ],
      "name": "ApprovalForAll",
      "type": "event"
    },
    {
      "anonymous": false,
      "inputs": [
        {
          "indexed": true,
          "internalType": "address",
          "name": "from",
          "type": "address"
        },
        {
          "indexed": true,
          "internalType": "address",
          "name": "to",
          "type": "address"
        },
        {
          "indexed": true,
          "internalType": "uint256",
          "name": "tokenId",
          "type": "uint256"
        }
      ],
      "name": "Transfer",
      "type": "event"
    },
    {
      "inputs": [
        {
          "internalType": "address",
          "name": "to",
          "type": "address"
        },
        {
          "internalType": "uint256",
          "name": "tokenId",
          "type": "uint256"
        }
      ],
      "name": "approve",
      "outputs": [],
      "stateMutability": "nonpayable",
      "type": "function"
    },
    {
      "inputs": [
        {
          "internalType": "address",
          "name": "owner",
          "type": "address"
        }
      ],
      "name": "balanceOf",
      "outputs": [
        {
          "internalType": "uint256",
          "name": "",
          "type": "uint256"
        }
      ],
      "stateMutability": "view",
      "type": "function"
    },
    {
      "inputs": [
        {
          "internalType": "uint256",
          "name": "tokenId",
          "type": "uint256"
        }
      ],
      "name": "getApproved",
      "outputs": [
        {
          "internalType": "address",
          "name": "",
          "type": "address"
        }
      ],
      "stateMutability": "view",
      "type": "function"
    },
    {
      "inputs": [
        {
          "internalType": "address",
          "name": "owner",
          "type": "address"
        },
        {
          "internalType": "address",
          "name": "operator",
          "type": "address"
        }
      ],
      "name": "isApprovedForAll",
      "outputs": [
        {
          "internalType": "bool",
          "name": "",
          "type": "bool"
        }
      ],
      "stateMutability": "view",
      "type": "function"
    },
    {
      "inputs": [],
      "name": "mint",
      "outputs": [],
      "stateMutability": "nonpayable",
      "type": "function"
    },
    {
      "inputs": [],
      "name": "name",
      "outputs": [
        {
          "internalType": "string",
          "name": "",
          "type": "string"
        }
      ],
      "stateMutability": "view",
      "type": "function"
    },
    {
      "inputs": [
        {
          "internalType": "uint256",
          "name": "tokenId",
          "type": "uint256"
        }
      ],
      "name": "ownerOf",
      "outputs": [
        {
          "internalType": "address",
          "name": "",
          "type": "address"
        }
      ],
      "stateMutability": "view",
      "type": "function"
    },
    {
      "inputs": [
        {
          "internalType": "address",
          "name": "from",
          "type": "address"
        },
        {
          "internalType": "address",
          "name": "to",
          "type": "address"
        },
        {
          "internalType": "uint256",
          "name": "tokenId",
          "type": "uint256"
        }
      ],
      "name": "safeTransferFrom",
      "outputs": [],
      "stateMutability": "nonpayable",
      "type": "function"
    },
    {
      "inputs": [
        {
          "internalType": "address",
          "name": "from",
          "type": "address"
        },
        {
          "internalType": "address",
          "name": "to",
          "type": "address"
        },
        {
          "internalType": "uint256",
          "name": "tokenId",
          "type": "uint256"
        },
        {
          "internalType": "bytes",
          "name": "_data",
          "type": "bytes"
        }
      ],
      "name": "safeTransferFrom",
      "outputs": [],
      "stateMutability": "nonpayable",
      "type": "function"
    },
    {
      "inputs": [
        {
          "internalType": "address",
          "name": "operator",
          "type": "address"
        },
        {
          "internalType": "bool",
          "name": "approved",
          "type": "bool"
        }
      ],
      "name": "setApprovalForAll",
      "outputs": [],
      "stateMutability": "nonpayable",
      "type": "function"
    },
    {
      "inputs": [
        {
          "internalType": "bytes4",
          "name": "interfaceId",
          "type": "bytes4"
        }
      ],
      "name": "supportsInterface",
      "outputs": [
        {
          "internalType": "bool",
          "name": "",
          "type": "bool"
        }
      ],
      "stateMutability": "view",
      "type": "function"
    },
    {
      "inputs": [],
      "name": "symbol",
      "outputs": [
        {
          "internalType": "string",
          "name": "",
          "type": "string"
        }
      ],
      "stateMutability": "view",
      "type": "function"
    },
    {
      "inputs": [
        {
          "internalType": "uint256",
          "name": "tokenId",
          "type": "uint256"
        }
      ],
      "name": "tokenURI",
      "outputs": [
        {
          "internalType": "string",
          "name": "",
          "type": "string"
        }
      ],
      "stateMutability": "view",
      "type": "function"
    },
    {
      "inputs": [
        {
          "internalType": "address",
          "name": "from",
          "type": "address"
        },
        {
          "internalType": "address",
          "name": "to",
          "type": "address"
        },
        {
          "internalType": "uint256",
          "name": "tokenId",
          "type": "uint256"
        }
      ],
      "name": "transferFrom",
      "outputs": [],
      "stateMutability": "nonpayable",
      "type": "function"
    }
  ],
  "bytecode": "0x60806040523480156200001157600080fd5b5060405162002ae938038062002ae98339818101604052810190620000379190620001c4565b8181816000908051906020019062000051929190620000a2565b5080600190805190602001906200006a929190620000a2565b5050506200008460066200008c60201b62000bb11760201c565b5050620003a7565b6001816000016000828254019250508190555050565b828054620000b090620002cc565b90600052602060002090601f016020900481019282620000d4576000855562000120565b82601f10620000ef57805160ff191683800117855562000120565b8280016001018555821562000120579182015b828111156200011f57825182559160200191906001019062000102565b5b5090506200012f919062000133565b5090565b5b808211156200014e57600081600090555060010162000134565b5090565b600062000169620001638462000260565b62000237565b9050828152602081018484840111156200018257600080fd5b6200018f84828562000296565b509392505050565b600082601f830112620001a957600080fd5b8151620001bb84826020860162000152565b91505092915050565b60008060408385031215620001d857600080fd5b600083015167ffffffffffffffff811115620001f357600080fd5b620002018582860162000197565b925050602083015167ffffffffffffffff8111156200021f57600080fd5b6200022d8582860162000197565b9150509250929050565b60006200024362000256565b905062000251828262000302565b919050565b6000604051905090565b600067ffffffffffffffff8211156200027e576200027d62000367565b5b620002898262000396565b9050602081019050919050565b60005b83811015620002b657808201518184015260208101905062000299565b83811115620002c6576000848401525b50505050565b60006002820490506001821680620002e557607f821691505b60208210811415620002fc57620002fb62000338565b5b50919050565b6200030d8262000396565b810181811067ffffffffffffffff821117156200032f576200032e62000367565b5b80604052505050565b7f4e487b7100000000000000000000000000000000000000000000000000000000600052602260045260246000fd5b7f4e487b7100000000000000000000000000000000000000000000000000000000600052604160045260246000fd5b6000601f19601f8301169050919050565b61273280620003b76000396000f3fe608060405234801561001057600080fd5b50600436106100ea5760003560e01c80636352211e1161008c578063a22cb46511610066578063a22cb46514610249578063b88d4fde14610265578063c87b56dd14610281578063e985e9c5146102b1576100ea565b80636352211e146101cb57806370a08231146101fb57806395d89b411461022b576100ea565b8063095ea7b3116100c8578063095ea7b31461016d5780631249c58b1461018957806323b872dd1461019357806342842e0e146101af576100ea565b806301ffc9a7146100ef57806306fdde031461011f578063081812fc1461013d575b600080fd5b61010960048036038101906101049190611934565b6102e1565b6040516101169190611cf4565b60405180910390f35b6101276103c3565b6040516101349190611d0f565b60405180910390f35b61015760048036038101906101529190611986565b610455565b6040516101649190611c8d565b60405180910390f35b610187600480360381019061018291906118f8565b6104da565b005b6101916105f2565b005b6101ad60048036038101906101a891906117f2565b610617565b005b6101c960048036038101906101c491906117f2565b610677565b005b6101e560048036038101906101e09190611986565b610697565b6040516101f29190611c8d565b60405180910390f35b6102156004803603810190610210919061178d565b610749565b6040516102229190611ef1565b60405180910390f35b610233610801565b6040516102409190611d0f565b60405180910390f35b610263600480360381019061025e91906118bc565b610893565b005b61027f600480360381019061027a9190611841565b610a14565b005b61029b60048036038101906102969190611986565b610a76565b6040516102a89190611d0f565b60405180910390f35b6102cb60048036038101906102c691906117b6565b610b1d565b6040516102d89190611cf4565b60405180910390f35b60007f80ac58cd000000000000000000000000000000000000000000000000000000007bffffffffffffffffffffffffffffffffffffffffffffffffffffffff1916827bffffffffffffffffffffffffffffffffffffffffffffffffffffffff191614806103ac57507f5b5e139f000000000000000000000000000000000000000000000000000000007bffffffffffffffffffffffffffffffffffffffffffffffffffffffff1916827bffffffffffffffffffffffffffffffffffffffffffffffffffffffff1916145b806103bc57506103bb82610bc7565b5b9050919050565b6060600080546103d290612116565b80601f01602080910402602001604051908101604052809291908181526020018280546103fe90612116565b801561044b5780601f106104205761010080835404028352916020019161044b565b820191906000526020600020905b81548152906001019060200180831161042e57829003601f168201915b5050505050905090565b600061046082610c31565b61049f576040517f08c379a000000000000000000000000000000000000000000000000000000000815260040161049690611e51565b60405180910390fd5b6004600083815260200190815260200160002060009054906101000a900473ffffffffffffffffffffffffffffffffffffffff169050919050565b60006104e582610697565b90508073ffffffffffffffffffffffffffffffffffffffff168373ffffffffffffffffffffffffffffffffffffffff161415610556576040517f08c379a000000000000000000000000000000000000000000000000000000000815260040161054d90611eb1565b60405180910390fd5b8073ffffffffffffffffffffffffffffffffffffffff16610575610c9d565b73ffffffffffffffffffffffffffffffffffffffff1614806105a457506105a38161059e610c9d565b610b1d565b5b6105e3576040517f08c379a00000000000000000000000000000000000000000000000000000000081526004016105da90611dd1565b60405180910390fd5b6105ed8383610ca5565b505050565b60006105fe6006610d5e565b905061060a3382610d6c565b6106146006610bb1565b50565b610628610622610c9d565b82610d8a565b610667576040517f08c379a000000000000000000000000000000000000000000000000000000000815260040161065e90611ed1565b60405180910390fd5b610672838383610e68565b505050565b61069283838360405180602001604052806000815250610a14565b505050565b6000806002600084815260200190815260200160002060009054906101000a900473ffffffffffffffffffffffffffffffffffffffff169050600073ffffffffffffffffffffffffffffffffffffffff168173ffffffffffffffffffffffffffffffffffffffff161415610740576040517f08c379a000000000000000000000000000000000000000000000000000000000815260040161073790611e11565b60405180910390fd5b80915050919050565b60008073ffffffffffffffffffffffffffffffffffffffff168273ffffffffffffffffffffffffffffffffffffffff1614156107ba576040517f08c379a00000000000000000000000000000000000000000000000000000000081526004016107b190611df1565b60405180910390fd5b600360008373ffffffffffffffffffffffffffffffffffffffff1673ffffffffffffffffffffffffffffffffffffffff168152602001908152602001600020549050919050565b60606001805461081090612116565b80601f016020809104026020016040519081016040528092919081815260200182805461083c90612116565b80156108895780601f1061085e57610100808354040283529160200191610889565b820191906000526020600020905b81548152906001019060200180831161086c57829003601f168201915b5050505050905090565b61089b610c9d565b73ffffffffffffffffffffffffffffffffffffffff168273ffffffffffffffffffffffffffffffffffffffff161415610909576040517f08c379a000000000000000000000000000000000000000000000000000000000815260040161090090611d91565b60405180910390fd5b8060056000610916610c9d565b73ffffffffffffffffffffffffffffffffffffffff1673ffffffffffffffffffffffffffffffffffffffff16815260200190815260200160002060008473ffffffffffffffffffffffffffffffffffffffff1673ffffffffffffffffffffffffffffffffffffffff16815260200190815260200160002060006101000a81548160ff0219169083151502179055508173ffffffffffffffffffffffffffffffffffffffff166109c3610c9d565b73ffffffffffffffffffffffffffffffffffffffff167f17307eab39ab6107e8899845ad3d59bd9653f200f220920489ca2b5937696c3183604051610a089190611cf4565b60405180910390a35050565b610a25610a1f610c9d565b83610d8a565b610a64576040517f08c379a0000000000000000000000000000000000000000000000000000000008152600401610a5b90611ed1565b60405180910390fd5b610a70848484846110c4565b50505050565b6060610a8182610c31565b610ac0576040517f08c379a0000000000000000000000000000000000000000000000000000000008152600401610ab790611e91565b60405180910390fd5b6000610aca611120565b90506000815111610aea5760405180602001604052806000815250610b15565b80610af484611137565b604051602001610b05929190611c69565b6040516020818303038152906040525b915050919050565b6000600560008473ffffffffffffffffffffffffffffffffffffffff1673ffffffffffffffffffffffffffffffffffffffff16815260200190815260200160002060008373ffffffffffffffffffffffffffffffffffffffff1673ffffffffffffffffffffffffffffffffffffffff16815260200190815260200160002060009054906101000a900460ff16905092915050565b6001816000016000828254019250508190555050565b60007f01ffc9a7000000000000000000000000000000000000000000000000000000007bffffffffffffffffffffffffffffffffffffffffffffffffffffffff1916827bffffffffffffffffffffffffffffffffffffffffffffffffffffffff1916149050919050565b60008073ffffffffffffffffffffffffffffffffffffffff166002600084815260200190815260200160002060009054906101000a900473ffffffffffffffffffffffffffffffffffffffff1673ffffffffffffffffffffffffffffffffffffffff1614159050919050565b600033905090565b816004600083815260200190815260200160002060006101000a81548173ffffffffffffffffffffffffffffffffffffffff021916908373ffffffffffffffffffffffffffffffffffffffff160217905550808273ffffffffffffffffffffffffffffffffffffffff16610d1883610697565b73ffffffffffffffffffffffffffffffffffffffff167f8c5be1e5ebec7d5bd14f71427d1e84f3dd0314c0f7b2291e5b200ac8c7c3b92560405160405180910390a45050565b600081600001549050919050565b610d868282604051806020016040528060008152506112e4565b5050565b6000610d9582610c31565b610dd4576040517f08c379a0000000000000000000000000000000000000000000000000000000008152600401610dcb90611db1565b60405180910390fd5b6000610ddf83610697565b90508073ffffffffffffffffffffffffffffffffffffffff168473ffffffffffffffffffffffffffffffffffffffff161480610e4e57508373ffffffffffffffffffffffffffffffffffffffff16610e3684610455565b73ffffffffffffffffffffffffffffffffffffffff16145b80610e5f5750610e5e8185610b1d565b5b91505092915050565b8273ffffffffffffffffffffffffffffffffffffffff16610e8882610697565b73ffffffffffffffffffffffffffffffffffffffff1614610ede576040517f08c379a0000000000000000000000000000000000000000000000000000000008152600401610ed590611e71565b60405180910390fd5b600073ffffffffffffffffffffffffffffffffffffffff168273ffffffffffffffffffffffffffffffffffffffff161415610f4e576040517f08c379a0000000000000000000000000000000000000000000000000000000008152600401610f4590611d71565b60405180910390fd5b610f5983838361133f565b610f64600082610ca5565b6001600360008573ffffffffffffffffffffffffffffffffffffffff1673ffffffffffffffffffffffffffffffffffffffff1681526020019081526020016000206000828254610fb4919061202c565b925050819055506001600360008473ffffffffffffffffffffffffffffffffffffffff1673ffffffffffffffffffffffffffffffffffffffff168152602001908152602001600020600082825461100b9190611fa5565b92505081905550816002600083815260200190815260200160002060006101000a81548173ffffffffffffffffffffffffffffffffffffffff021916908373ffffffffffffffffffffffffffffffffffffffff160217905550808273ffffffffffffffffffffffffffffffffffffffff168473ffffffffffffffffffffffffffffffffffffffff167fddf252ad1be2c89b69c2b068fc378daa952ba7f163c4a11628f55a4df523b3ef60405160405180910390a4505050565b6110cf848484610e68565b6110db84848484611344565b61111a576040517f08c379a000000000000000000000000000000000000000000000000000000000815260040161111190611d31565b60405180910390fd5b50505050565b606060405180602001604052806000815250905090565b6060600082141561117f576040518060400160405280600181526020017f300000000000000000000000000000000000000000000000000000000000000081525090506112df565b600082905060005b600082146111b157808061119a90612179565b915050600a826111aa9190611ffb565b9150611187565b60008167ffffffffffffffff8111156111f3577f4e487b7100000000000000000000000000000000000000000000000000000000600052604160045260246000fd5b6040519080825280601f01601f1916602001820160405280156112255781602001600182028036833780820191505090505b5090505b600085146112d85760018261123e919061202c565b9150600a8561124d91906121c2565b60306112599190611fa5565b60f81b818381518110611295577f4e487b7100000000000000000000000000000000000000000000000000000000600052603260045260246000fd5b60200101907effffffffffffffffffffffffffffffffffffffffffffffffffffffffffffff1916908160001a905350600a856112d19190611ffb565b9450611229565b8093505050505b919050565b6112ee83836114db565b6112fb6000848484611344565b61133a576040517f08c379a000000000000000000000000000000000000000000000000000000000815260040161133190611d31565b60405180910390fd5b505050565b505050565b60006113658473ffffffffffffffffffffffffffffffffffffffff166116a9565b156114ce578373ffffffffffffffffffffffffffffffffffffffff1663150b7a0261138e610c9d565b8786866040518563ffffffff1660e01b81526004016113b09493929190611ca8565b602060405180830381600087803b1580156113ca57600080fd5b505af19250505080156113fb57506040513d601f19601f820116820180604052508101906113f8919061195d565b60015b61147e573d806000811461142b576040519150601f19603f3d011682016040523d82523d6000602084013e611430565b606091505b50600081511415611476576040517f08c379a000000000000000000000000000000000000000000000000000000000815260040161146d90611d31565b60405180910390fd5b805181602001fd5b63150b7a0260e01b7bffffffffffffffffffffffffffffffffffffffffffffffffffffffff1916817bffffffffffffffffffffffffffffffffffffffffffffffffffffffff1916149150506114d3565b600190505b949350505050565b600073ffffffffffffffffffffffffffffffffffffffff168273ffffffffffffffffffffffffffffffffffffffff16141561154b576040517f08c379a000000000000000000000000000000000000000000000000000000000815260040161154290611e31565b60405180910390fd5b61155481610c31565b15611594576040517f08c379a000000000000000000000000000000000000000000000000000000000815260040161158b90611d51565b60405180910390fd5b6115a06000838361133f565b6001600360008473ffffffffffffffffffffffffffffffffffffffff1673ffffffffffffffffffffffffffffffffffffffff16815260200190815260200160002060008282546115f09190611fa5565b92505081905550816002600083815260200190815260200160002060006101000a81548173ffffffffffffffffffffffffffffffffffffffff021916908373ffffffffffffffffffffffffffffffffffffffff160217905550808273ffffffffffffffffffffffffffffffffffffffff16600073ffffffffffffffffffffffffffffffffffffffff167fddf252ad1be2c89b69c2b068fc378daa952ba7f163c4a11628f55a4df523b3ef60405160405180910390a45050565b600080823b905060008111915050919050565b60006116cf6116ca84611f31565b611f0c565b9050828152602081018484840111156116e757600080fd5b6116f28482856120d4565b509392505050565b600081359050611709816126a0565b92915050565b60008135905061171e816126b7565b92915050565b600081359050611733816126ce565b92915050565b600081519050611748816126ce565b92915050565b600082601f83011261175f57600080fd5b813561176f8482602086016116bc565b91505092915050565b600081359050611787816126e5565b92915050565b60006020828403121561179f57600080fd5b60006117ad848285016116fa565b91505092915050565b600080604083850312156117c957600080fd5b60006117d7858286016116fa565b92505060206117e8858286016116fa565b9150509250929050565b60008060006060848603121561180757600080fd5b6000611815868287016116fa565b9350506020611826868287016116fa565b925050604061183786828701611778565b9150509250925092565b6000806000806080858703121561185757600080fd5b6000611865878288016116fa565b9450506020611876878288016116fa565b935050604061188787828801611778565b925050606085013567ffffffffffffffff8111156118a457600080fd5b6118b08782880161174e565b91505092959194509250565b600080604083850312156118cf57600080fd5b60006118dd858286016116fa565b92505060206118ee8582860161170f565b9150509250929050565b6000806040838503121561190b57600080fd5b6000611919858286016116fa565b925050602061192a85828601611778565b9150509250929050565b60006020828403121561194657600080fd5b600061195484828501611724565b91505092915050565b60006020828403121561196f57600080fd5b600061197d84828501611739565b91505092915050565b60006020828403121561199857600080fd5b60006119a684828501611778565b91505092915050565b6119b881612060565b82525050565b6119c781612072565b82525050565b60006119d882611f62565b6119e28185611f78565b93506119f28185602086016120e3565b6119fb816122af565b840191505092915050565b6000611a1182611f6d565b611a1b8185611f89565b9350611a2b8185602086016120e3565b611a34816122af565b840191505092915050565b6000611a4a82611f6d565b611a548185611f9a565b9350611a648185602086016120e3565b80840191505092915050565b6000611a7d603283611f89565b9150611a88826122c0565b604082019050919050565b6000611aa0601c83611f89565b9150611aab8261230f565b602082019050919050565b6000611ac3602483611f89565b9150611ace82612338565b604082019050919050565b6000611ae6601983611f89565b9150611af182612387565b602082019050919050565b6000611b09602c83611f89565b9150611b14826123b0565b604082019050919050565b6000611b2c603883611f89565b9150611b37826123ff565b604082019050919050565b6000611b4f602a83611f89565b9150611b5a8261244e565b604082019050919050565b6000611b72602983611f89565b9150611b7d8261249d565b604082019050919050565b6000611b95602083611f89565b9150611ba0826124ec565b602082019050919050565b6000611bb8602c83611f89565b9150611bc382612515565b604082019050919050565b6000611bdb602983611f89565b9150611be682612564565b604082019050919050565b6000611bfe602f83611f89565b9150611c09826125b3565b604082019050919050565b6000611c21602183611f89565b9150611c2c82612602565b604082019050919050565b6000611c44603183611f89565b9150611c4f82612651565b604082019050919050565b611c63816120ca565b82525050565b6000611c758285611a3f565b9150611c818284611a3f565b91508190509392505050565b6000602082019050611ca260008301846119af565b92915050565b6000608082019050611cbd60008301876119af565b611cca60208301866119af565b611cd76040830185611c5a565b8181036060830152611ce981846119cd565b905095945050505050565b6000602082019050611d0960008301846119be565b92915050565b60006020820190508181036000830152611d298184611a06565b905092915050565b60006020820190508181036000830152611d4a81611a70565b9050919050565b60006020820190508181036000830152611d6a81611a93565b9050919050565b60006020820190508181036000830152611d8a81611ab6565b9050919050565b60006020820190508181036000830152611daa81611ad9565b9050919050565b60006020820190508181036000830152611dca81611afc565b9050919050565b60006020820190508181036000830152611dea81611b1f565b9050919050565b60006020820190508181036000830152611e0a81611b42565b9050919050565b60006020820190508181036000830152611e2a81611b65565b9050919050565b60006020820190508181036000830152611e4a81611b88565b9050919050565b60006020820190508181036000830152611e6a81611bab565b9050919050565b60006020820190508181036000830152611e8a81611bce565b9050919050565b60006020820190508181036000830152611eaa81611bf1565b9050919050565b60006020820190508181036000830152611eca81611c14565b9050919050565b60006020820190508181036000830152611eea81611c37565b9050919050565b6000602082019050611f066000830184611c5a565b92915050565b6000611f16611f27565b9050611f228282612148565b919050565b6000604051905090565b600067ffffffffffffffff821115611f4c57611f4b612280565b5b611f55826122af565b9050602081019050919050565b600081519050919050565b600081519050919050565b600082825260208201905092915050565b600082825260208201905092915050565b600081905092915050565b6000611fb0826120ca565b9150611fbb836120ca565b9250827fffffffffffffffffffffffffffffffffffffffffffffffffffffffffffffffff03821115611ff057611fef6121f3565b5b828201905092915050565b6000612006826120ca565b9150612011836120ca565b92508261202157612020612222565b5b828204905092915050565b6000612037826120ca565b9150612042836120ca565b925082821015612055576120546121f3565b5b828203905092915050565b600061206b826120aa565b9050919050565b60008115159050919050565b60007fffffffff0000000000000000000000000000000000000000000000000000000082169050919050565b600073ffffffffffffffffffffffffffffffffffffffff82169050919050565b6000819050919050565b82818337600083830152505050565b60005b838110156121015780820151818401526020810190506120e6565b83811115612110576000848401525b50505050565b6000600282049050600182168061212e57607f821691505b6020821081141561214257612141612251565b5b50919050565b612151826122af565b810181811067ffffffffffffffff821117156121705761216f612280565b5b80604052505050565b6000612184826120ca565b91507fffffffffffffffffffffffffffffffffffffffffffffffffffffffffffffffff8214156121b7576121b66121f3565b5b600182019050919050565b60006121cd826120ca565b91506121d8836120ca565b9250826121e8576121e7612222565b5b828206905092915050565b7f4e487b7100000000000000000000000000000000000000000000000000000000600052601160045260246000fd5b7f4e487b7100000000000000000000000000000000000000000000000000000000600052601260045260246000fd5b7f4e487b7100000000000000000000000000000000000000000000000000000000600052602260045260246000fd5b7f4e487b7100000000000000000000000000000000000000000000000000000000600052604160045260246000fd5b6000601f19601f8301169050919050565b7f4552433732313a207472616e7366657220746f206e6f6e20455243373231526560008201527f63656976657220696d706c656d656e7465720000000000000000000000000000602082015250565b7f4552433732313a20746f6b656e20616c7265616479206d696e74656400000000600082015250565b7f4552433732313a207472616e7366657220746f20746865207a65726f2061646460008201527f7265737300000000000000000000000000000000000000000000000000000000602082015250565b7f4552433732313a20617070726f766520746f2063616c6c657200000000000000600082015250565b7f4552433732313a206f70657261746f7220717565727920666f72206e6f6e657860008201527f697374656e7420746f6b656e0000000000000000000000000000000000000000602082015250565b7f4552433732313a20617070726f76652063616c6c6572206973206e6f74206f7760008201527f6e6572206e6f7220617070726f76656420666f7220616c6c0000000000000000602082015250565b7f4552433732313a2062616c616e636520717565727920666f7220746865207a6560008201527f726f206164647265737300000000000000000000000000000000000000000000602082015250565b7f4552433732313a206f776e657220717565727920666f72206e6f6e657869737460008201527f656e7420746f6b656e0000000000000000000000000000000000000000000000602082015250565b7f4552433732313a206d696e7420746f20746865207a65726f2061646472657373600082015250565b7f4552433732313a20617070726f76656420717565727920666f72206e6f6e657860008201527f697374656e7420746f6b656e0000000000000000000000000000000000000000602082015250565b7f4552433732313a207472616e73666572206f6620746f6b656e2074686174206960008201527f73206e6f74206f776e0000000000000000000000000000000000000000000000602082015250565b7f4552433732314d657461646174613a2055524920717565727920666f72206e6f60008201527f6e6578697374656e7420746f6b656e0000000000000000000000000000000000602082015250565b7f4552433732313a20617070726f76616c20746f2063757272656e74206f776e6560008201527f7200000000000000000000000000000000000000000000000000000000000000602082015250565b7f4552433732313a207472616e736665722063616c6c6572206973206e6f74206f60008201527f776e6572206e6f7220617070726f766564000000000000000000000000000000602082015250565b6126a981612060565b81146126b457600080fd5b50565b6126c081612072565b81146126cb57600080fd5b50565b6126d78161207e565b81146126e257600080fd5b50565b6126ee816120ca565b81146126f957600080fd5b5056fea2646970667358221220ed5299494472b1f0f2b3f2b4d632cff2be6bc1305d59f810d4a6a06d522f4ad164736f6c63430008040033",
  "linkReferences": {},
  "deployedLinkReferences": {}
}