{
  "_format": "hh-sol-artifact-1",
  "contractName": "MockERC721",
  "sourceName": "contracts/MockERC721.sol",
  "abi": [
    {
      "inputs": [
        {
          "internalType": "string",
          "name": "name",
          "type": "string"
        },
        {
          "internalType": "string",
          "name": "symbol",
          "type": "string"
        }
      ],
      "stateMutability": "nonpayable",
      "type": "constructor"
    },
    {
      "anonymous": false,
      "inputs": [
        {
          "indexed": true,
          "internalType": "address",
          "name": "owner",
          "type": "address"
        },
        {
          "indexed": true,
          "internalType": "address",
          "name": "approved",
          "type": "address"
        },
        {
          "indexed": true,
          "internalType": "uint256",
          "name": "tokenId",
          "type": "uint256"
        }
      ],
      "name": "Approval",
      "type": "event"
    },
    {
      "anonymous": false,
      "inputs": [
        {
          "indexed": true,
          "internalType": "address",
          "name": "owner",
          "type": "address"
        },
        {
          "indexed": true,
          "internalType": "address",
          "name": "operator",
          "type": "address"
        },
        {
          "indexed": false,
          "internalType": "bool",
          "name": "approved",
          "type": "bool"
        }
      ],
      "name": "ApprovalForAll",
      "type": "event"
    },
    {
      "anonymous": false,
      "inputs": [
        {
          "indexed": true,
          "internalType": "address",
          "name": "from",
          "type": "address"
        },
        {
          "indexed": true,
          "internalType": "address",
          "name": "to",
          "type": "address"
        },
        {
          "indexed": true,
          "internalType": "uint256",
          "name": "tokenId",
          "type": "uint256"
        }
      ],
      "name": "Transfer",
      "type": "event"
    },
    {
      "inputs": [
        {
          "internalType": "address",
          "name": "to",
          "type": "address"
        },
        {
          "internalType": "uint256",
          "name": "tokenId",
          "type": "uint256"
        }
      ],
      "name": "approve",
      "outputs": [],
      "stateMutability": "nonpayable",
      "type": "function"
    },
    {
      "inputs": [
        {
          "internalType": "address",
          "name": "owner",
          "type": "address"
        }
      ],
      "name": "balanceOf",
      "outputs": [
        {
          "internalType": "uint256",
          "name": "",
          "type": "uint256"
        }
      ],
      "stateMutability": "view",
      "type": "function"
    },
    {
      "inputs": [
        {
          "internalType": "uint256",
          "name": "tokenId",
          "type": "uint256"
        }
      ],
      "name": "getApproved",
      "outputs": [
        {
          "internalType": "address",
          "name": "",
          "type": "address"
        }
      ],
      "stateMutability": "view",
      "type": "function"
    },
    {
      "inputs": [
        {
          "internalType": "address",
          "name": "owner",
          "type": "address"
        },
        {
          "internalType": "address",
          "name": "operator",
          "type": "address"
        }
      ],
      "name": "isApprovedForAll",
      "outputs": [
        {
          "internalType": "bool",
          "name": "",
          "type": "bool"
        }
      ],
      "stateMutability": "view",
      "type": "function"
    },
    {
      "inputs": [],
      "name": "mint",
      "outputs": [],
      "stateMutability": "nonpayable",
      "type": "function"
    },
    {
      "inputs": [],
      "name": "name",
      "outputs": [
        {
          "internalType": "string",
          "name": "",
          "type": "string"
        }
      ],
      "stateMutability": "view",
      "type": "function"
    },
    {
      "inputs": [
        {
          "internalType": "uint256",
          "name": "tokenId",
          "type": "uint256"
        }
      ],
      "name": "ownerOf",
      "outputs": [
        {
          "internalType": "address",
          "name": "",
          "type": "address"
        }
      ],
      "stateMutability": "view",
      "type": "function"
    },
    {
      "inputs": [
        {
          "internalType": "address",
          "name": "from",
          "type": "address"
        },
        {
          "internalType": "address",
          "name": "to",
          "type": "address"
        },
        {
          "internalType": "uint256",
          "name": "tokenId",
          "type": "uint256"
        }
      ],
      "name": "safeTransferFrom",
      "outputs": [],
      "stateMutability": "nonpayable",
      "type": "function"
    },
    {
      "inputs": [
        {
          "internalType": "address",
          "name": "from",
          "type": "address"
        },
        {
          "internalType": "address",
          "name": "to",
          "type": "address"
        },
        {
          "internalType": "uint256",
          "name": "tokenId",
          "type": "uint256"
        },
        {
          "internalType": "bytes",
          "name": "_data",
          "type": "bytes"
        }
      ],
      "name": "safeTransferFrom",
      "outputs": [],
      "stateMutability": "nonpayable",
      "type": "function"
    },
    {
      "inputs": [
        {
          "internalType": "address",
          "name": "operator",
          "type": "address"
        },
        {
          "internalType": "bool",
          "name": "approved",
          "type": "bool"
        }
      ],
      "name": "setApprovalForAll",
      "outputs": [],
      "stateMutability": "nonpayable",
      "type": "function"
    },
    {
      "inputs": [
        {
          "internalType": "bytes4",
          "name": "interfaceId",
          "type": "bytes4"
        }
      ],
      "name": "supportsInterface",
      "outputs": [
        {
          "internalType": "bool",
          "name": "",
          "type": "bool"
        }
      ],
      "stateMutability": "view",
      "type": "function"
    },
    {
      "inputs": [],
      "name": "symbol",
      "outputs": [
        {
          "internalType": "string",
          "name": "",
          "type": "string"
        }
      ],
      "stateMutability": "view",
      "type": "function"
    },
    {
      "inputs": [
        {
          "internalType": "uint256",
          "name": "tokenId",
          "type": "uint256"
        }
      ],
      "name": "tokenURI",
      "outputs": [
        {
          "internalType": "string",
          "name": "",
          "type": "string"
        }
      ],
      "stateMutability": "view",
      "type": "function"
    },
    {
      "inputs": [
        {
          "internalType": "address",
          "name": "from",
          "type": "address"
        },
        {
          "internalType": "address",
          "name": "to",
          "type": "address"
        },
        {
          "internalType": "uint256",
          "name": "tokenId",
          "type": "uint256"
        }
      ],
      "name": "transferFrom",
      "outputs": [],
      "stateMutability": "nonpayable",
      "type": "function"
    }
  ],
  "bytecode": "0x60806040523480156200001157600080fd5b5060405162002c2f38038062002c2f8339818101604052810190620000379190620001c4565b8181816000908051906020019062000051929190620000a2565b5080600190805190602001906200006a929190620000a2565b5050506200008460066200008c60201b62000bf11760201c565b5050620003a7565b6001816000016000828254019250508190555050565b828054620000b090620002cc565b90600052602060002090601f016020900481019282620000d4576000855562000120565b82601f10620000ef57805160ff191683800117855562000120565b8280016001018555821562000120579182015b828111156200011f57825182559160200191906001019062000102565b5b5090506200012f919062000133565b5090565b5b808211156200014e57600081600090555060010162000134565b5090565b600062000169620001638462000260565b62000237565b9050828152602081018484840111156200018257600080fd5b6200018f84828562000296565b509392505050565b600082601f830112620001a957600080fd5b8151620001bb84826020860162000152565b91505092915050565b60008060408385031215620001d857600080fd5b600083015167ffffffffffffffff811115620001f357600080fd5b620002018582860162000197565b925050602083015167ffffffffffffffff8111156200021f57600080fd5b6200022d8582860162000197565b9150509250929050565b60006200024362000256565b905062000251828262000302565b919050565b6000604051905090565b600067ffffffffffffffff8211156200027e576200027d62000367565b5b620002898262000396565b9050602081019050919050565b60005b83811015620002b657808201518184015260208101905062000299565b83811115620002c6576000848401525b50505050565b60006002820490506001821680620002e557607f821691505b60208210811415620002fc57620002fb62000338565b5b50919050565b6200030d8262000396565b810181811067ffffffffffffffff821117156200032f576200032e62000367565b5b80604052505050565b7f4e487b7100000000000000000000000000000000000000000000000000000000600052602260045260246000fd5b7f4e487b7100000000000000000000000000000000000000000000000000000000600052604160045260246000fd5b6000601f19601f8301169050919050565b61287880620003b76000396000f3fe608060405234801561001057600080fd5b50600436106100ea5760003560e01c80636352211e1161008c578063a22cb46511610066578063a22cb46514610249578063b88d4fde14610265578063c87b56dd14610281578063e985e9c5146102b1576100ea565b80636352211e146101cb57806370a08231146101fb57806395d89b411461022b576100ea565b8063095ea7b3116100c8578063095ea7b31461016d5780631249c58b1461018957806323b872dd1461019357806342842e0e146101af576100ea565b806301ffc9a7146100ef57806306fdde031461011f578063081812fc1461013d575b600080fd5b61010960048036038101906101049190611a3c565b6102e1565b6040516101169190611dfc565b60405180910390f35b6101276103c3565b6040516101349190611e17565b60405180910390f35b61015760048036038101906101529190611a8e565b610455565b6040516101649190611d95565b60405180910390f35b61018760048036038101906101829190611a00565b6104da565b005b6101916105f2565b005b6101ad60048036038101906101a891906118fa565b610657565b005b6101c960048036038101906101c491906118fa565b6106b7565b005b6101e560048036038101906101e09190611a8e565b6106d7565b6040516101f29190611d95565b60405180910390f35b61021560048036038101906102109190611895565b610789565b6040516102229190612037565b60405180910390f35b610233610841565b6040516102409190611e17565b60405180910390f35b610263600480360381019061025e91906119c4565b6108d3565b005b61027f600480360381019061027a9190611949565b610a54565b005b61029b60048036038101906102969190611a8e565b610ab6565b6040516102a89190611e17565b60405180910390f35b6102cb60048036038101906102c691906118be565b610b5d565b6040516102d89190611dfc565b60405180910390f35b60007f80ac58cd000000000000000000000000000000000000000000000000000000007bffffffffffffffffffffffffffffffffffffffffffffffffffffffff1916827bffffffffffffffffffffffffffffffffffffffffffffffffffffffff191614806103ac57507f5b5e139f000000000000000000000000000000000000000000000000000000007bffffffffffffffffffffffffffffffffffffffffffffffffffffffff1916827bffffffffffffffffffffffffffffffffffffffffffffffffffffffff1916145b806103bc57506103bb82610c07565b5b9050919050565b6060600080546103d29061225c565b80601f01602080910402602001604051908101604052809291908181526020018280546103fe9061225c565b801561044b5780601f106104205761010080835404028352916020019161044b565b820191906000526020600020905b81548152906001019060200180831161042e57829003601f168201915b5050505050905090565b600061046082610c71565b61049f576040517f08c379a000000000000000000000000000000000000000000000000000000000815260040161049690611f97565b60405180910390fd5b6004600083815260200190815260200160002060009054906101000a900473ffffffffffffffffffffffffffffffffffffffff169050919050565b60006104e5826106d7565b90508073ffffffffffffffffffffffffffffffffffffffff168373ffffffffffffffffffffffffffffffffffffffff161415610556576040517f08c379a000000000000000000000000000000000000000000000000000000000815260040161054d90611ff7565b60405180910390fd5b8073ffffffffffffffffffffffffffffffffffffffff16610575610cdd565b73ffffffffffffffffffffffffffffffffffffffff1614806105a457506105a38161059e610cdd565b610b5d565b5b6105e3576040517f08c379a00000000000000000000000000000000000000000000000000000000081526004016105da90611f17565b60405180910390fd5b6105ed8383610ce5565b505050565b60006105fe6006610d9e565b905061060a3382610dac565b6106146006610bf1565b6106546040518060400160405280601481526020017f4d696e746564204e465420257320666f722025730000000000000000000000008152508233610dca565b50565b610668610662610cdd565b82610e69565b6106a7576040517f08c379a000000000000000000000000000000000000000000000000000000000815260040161069e90612017565b60405180910390fd5b6106b2838383610f47565b505050565b6106d283838360405180602001604052806000815250610a54565b505050565b6000806002600084815260200190815260200160002060009054906101000a900473ffffffffffffffffffffffffffffffffffffffff169050600073ffffffffffffffffffffffffffffffffffffffff168173ffffffffffffffffffffffffffffffffffffffff161415610780576040517f08c379a000000000000000000000000000000000000000000000000000000000815260040161077790611f57565b60405180910390fd5b80915050919050565b60008073ffffffffffffffffffffffffffffffffffffffff168273ffffffffffffffffffffffffffffffffffffffff1614156107fa576040517f08c379a00000000000000000000000000000000000000000000000000000000081526004016107f190611f37565b60405180910390fd5b600360008373ffffffffffffffffffffffffffffffffffffffff1673ffffffffffffffffffffffffffffffffffffffff168152602001908152602001600020549050919050565b6060600180546108509061225c565b80601f016020809104026020016040519081016040528092919081815260200182805461087c9061225c565b80156108c95780601f1061089e576101008083540402835291602001916108c9565b820191906000526020600020905b8154815290600101906020018083116108ac57829003601f168201915b5050505050905090565b6108db610cdd565b73ffffffffffffffffffffffffffffffffffffffff168273ffffffffffffffffffffffffffffffffffffffff161415610949576040517f08c379a000000000000000000000000000000000000000000000000000000000815260040161094090611ed7565b60405180910390fd5b8060056000610956610cdd565b73ffffffffffffffffffffffffffffffffffffffff1673ffffffffffffffffffffffffffffffffffffffff16815260200190815260200160002060008473ffffffffffffffffffffffffffffffffffffffff1673ffffffffffffffffffffffffffffffffffffffff16815260200190815260200160002060006101000a81548160ff0219169083151502179055508173ffffffffffffffffffffffffffffffffffffffff16610a03610cdd565b73ffffffffffffffffffffffffffffffffffffffff167f17307eab39ab6107e8899845ad3d59bd9653f200f220920489ca2b5937696c3183604051610a489190611dfc565b60405180910390a35050565b610a65610a5f610cdd565b83610e69565b610aa4576040517f08c379a0000000000000000000000000000000000000000000000000000000008152600401610a9b90612017565b60405180910390fd5b610ab0848484846111a3565b50505050565b6060610ac182610c71565b610b00576040517f08c379a0000000000000000000000000000000000000000000000000000000008152600401610af790611fd7565b60405180910390fd5b6000610b0a6111ff565b90506000815111610b2a5760405180602001604052806000815250610b55565b80610b3484611216565b604051602001610b45929190611d71565b6040516020818303038152906040525b915050919050565b6000600560008473ffffffffffffffffffffffffffffffffffffffff1673ffffffffffffffffffffffffffffffffffffffff16815260200190815260200160002060008373ffffffffffffffffffffffffffffffffffffffff1673ffffffffffffffffffffffffffffffffffffffff16815260200190815260200160002060009054906101000a900460ff16905092915050565b6001816000016000828254019250508190555050565b60007f01ffc9a7000000000000000000000000000000000000000000000000000000007bffffffffffffffffffffffffffffffffffffffffffffffffffffffff1916827bffffffffffffffffffffffffffffffffffffffffffffffffffffffff1916149050919050565b60008073ffffffffffffffffffffffffffffffffffffffff166002600084815260200190815260200160002060009054906101000a900473ffffffffffffffffffffffffffffffffffffffff1673ffffffffffffffffffffffffffffffffffffffff1614159050919050565b600033905090565b816004600083815260200190815260200160002060006101000a81548173ffffffffffffffffffffffffffffffffffffffff021916908373ffffffffffffffffffffffffffffffffffffffff160217905550808273ffffffffffffffffffffffffffffffffffffffff16610d58836106d7565b73ffffffffffffffffffffffffffffffffffffffff167f8c5be1e5ebec7d5bd14f71427d1e84f3dd0314c0f7b2291e5b200ac8c7c3b92560405160405180910390a45050565b600081600001549050919050565b610dc68282604051806020016040528060008152506113c3565b5050565b610e64838383604051602401610de293929190611e39565b6040516020818303038152906040527fe3849f79000000000000000000000000000000000000000000000000000000007bffffffffffffffffffffffffffffffffffffffffffffffffffffffff19166020820180517bffffffffffffffffffffffffffffffffffffffffffffffffffffffff838183161783525050505061141e565b505050565b6000610e7482610c71565b610eb3576040517f08c379a0000000000000000000000000000000000000000000000000000000008152600401610eaa90611ef7565b60405180910390fd5b6000610ebe836106d7565b90508073ffffffffffffffffffffffffffffffffffffffff168473ffffffffffffffffffffffffffffffffffffffff161480610f2d57508373ffffffffffffffffffffffffffffffffffffffff16610f1584610455565b73ffffffffffffffffffffffffffffffffffffffff16145b80610f3e5750610f3d8185610b5d565b5b91505092915050565b8273ffffffffffffffffffffffffffffffffffffffff16610f67826106d7565b73ffffffffffffffffffffffffffffffffffffffff1614610fbd576040517f08c379a0000000000000000000000000000000000000000000000000000000008152600401610fb490611fb7565b60405180910390fd5b600073ffffffffffffffffffffffffffffffffffffffff168273ffffffffffffffffffffffffffffffffffffffff16141561102d576040517f08c379a000000000000000000000000000000000000000000000000000000000815260040161102490611eb7565b60405180910390fd5b611038838383611447565b611043600082610ce5565b6001600360008573ffffffffffffffffffffffffffffffffffffffff1673ffffffffffffffffffffffffffffffffffffffff16815260200190815260200160002060008282546110939190612172565b925050819055506001600360008473ffffffffffffffffffffffffffffffffffffffff1673ffffffffffffffffffffffffffffffffffffffff16815260200190815260200160002060008282546110ea91906120eb565b92505081905550816002600083815260200190815260200160002060006101000a81548173ffffffffffffffffffffffffffffffffffffffff021916908373ffffffffffffffffffffffffffffffffffffffff160217905550808273ffffffffffffffffffffffffffffffffffffffff168473ffffffffffffffffffffffffffffffffffffffff167fddf252ad1be2c89b69c2b068fc378daa952ba7f163c4a11628f55a4df523b3ef60405160405180910390a4505050565b6111ae848484610f47565b6111ba8484848461144c565b6111f9576040517f08c379a00000000000000000000000000000000000000000000000000000000081526004016111f090611e77565b60405180910390fd5b50505050565b606060405180602001604052806000815250905090565b6060600082141561125e576040518060400160405280600181526020017f300000000000000000000000000000000000000000000000000000000000000081525090506113be565b600082905060005b60008214611290578080611279906122bf565b915050600a826112899190612141565b9150611266565b60008167ffffffffffffffff8111156112d2577f4e487b7100000000000000000000000000000000000000000000000000000000600052604160045260246000fd5b6040519080825280601f01601f1916602001820160405280156113045781602001600182028036833780820191505090505b5090505b600085146113b75760018261131d9190612172565b9150600a8561132c9190612308565b603061133891906120eb565b60f81b818381518110611374577f4e487b7100000000000000000000000000000000000000000000000000000000600052603260045260246000fd5b60200101907effffffffffffffffffffffffffffffffffffffffffffffffffffffffffffff1916908160001a905350600a856113b09190612141565b9450611308565b8093505050505b919050565b6113cd83836115e3565b6113da600084848461144c565b611419576040517f08c379a000000000000000000000000000000000000000000000000000000000815260040161141090611e77565b60405180910390fd5b505050565b60008151905060006a636f6e736f6c652e6c6f679050602083016000808483855afa5050505050565b505050565b600061146d8473ffffffffffffffffffffffffffffffffffffffff166117b1565b156115d6578373ffffffffffffffffffffffffffffffffffffffff1663150b7a02611496610cdd565b8786866040518563ffffffff1660e01b81526004016114b89493929190611db0565b602060405180830381600087803b1580156114d257600080fd5b505af192505050801561150357506040513d601f19601f820116820180604052508101906115009190611a65565b60015b611586573d8060008114611533576040519150601f19603f3d011682016040523d82523d6000602084013e611538565b606091505b5060008151141561157e576040517f08c379a000000000000000000000000000000000000000000000000000000000815260040161157590611e77565b60405180910390fd5b805181602001fd5b63150b7a0260e01b7bffffffffffffffffffffffffffffffffffffffffffffffffffffffff1916817bffffffffffffffffffffffffffffffffffffffffffffffffffffffff1916149150506115db565b600190505b949350505050565b600073ffffffffffffffffffffffffffffffffffffffff168273ffffffffffffffffffffffffffffffffffffffff161415611653576040517f08c379a000000000000000000000000000000000000000000000000000000000815260040161164a90611f77565b60405180910390fd5b61165c81610c71565b1561169c576040517f08c379a000000000000000000000000000000000000000000000000000000000815260040161169390611e97565b60405180910390fd5b6116a860008383611447565b6001600360008473ffffffffffffffffffffffffffffffffffffffff1673ffffffffffffffffffffffffffffffffffffffff16815260200190815260200160002060008282546116f891906120eb565b92505081905550816002600083815260200190815260200160002060006101000a81548173ffffffffffffffffffffffffffffffffffffffff021916908373ffffffffffffffffffffffffffffffffffffffff160217905550808273ffffffffffffffffffffffffffffffffffffffff16600073ffffffffffffffffffffffffffffffffffffffff167fddf252ad1be2c89b69c2b068fc378daa952ba7f163c4a11628f55a4df523b3ef60405160405180910390a45050565b600080823b905060008111915050919050565b60006117d76117d284612077565b612052565b9050828152602081018484840111156117ef57600080fd5b6117fa84828561221a565b509392505050565b600081359050611811816127e6565b92915050565b600081359050611826816127fd565b92915050565b60008135905061183b81612814565b92915050565b60008151905061185081612814565b92915050565b600082601f83011261186757600080fd5b81356118778482602086016117c4565b91505092915050565b60008135905061188f8161282b565b92915050565b6000602082840312156118a757600080fd5b60006118b584828501611802565b91505092915050565b600080604083850312156118d157600080fd5b60006118df85828601611802565b92505060206118f085828601611802565b9150509250929050565b60008060006060848603121561190f57600080fd5b600061191d86828701611802565b935050602061192e86828701611802565b925050604061193f86828701611880565b9150509250925092565b6000806000806080858703121561195f57600080fd5b600061196d87828801611802565b945050602061197e87828801611802565b935050604061198f87828801611880565b925050606085013567ffffffffffffffff8111156119ac57600080fd5b6119b887828801611856565b91505092959194509250565b600080604083850312156119d757600080fd5b60006119e585828601611802565b92505060206119f685828601611817565b9150509250929050565b60008060408385031215611a1357600080fd5b6000611a2185828601611802565b9250506020611a3285828601611880565b9150509250929050565b600060208284031215611a4e57600080fd5b6000611a5c8482850161182c565b91505092915050565b600060208284031215611a7757600080fd5b6000611a8584828501611841565b91505092915050565b600060208284031215611aa057600080fd5b6000611aae84828501611880565b91505092915050565b611ac0816121a6565b82525050565b611acf816121b8565b82525050565b6000611ae0826120a8565b611aea81856120be565b9350611afa818560208601612229565b611b03816123f5565b840191505092915050565b6000611b19826120b3565b611b2381856120cf565b9350611b33818560208601612229565b611b3c816123f5565b840191505092915050565b6000611b52826120b3565b611b5c81856120e0565b9350611b6c818560208601612229565b80840191505092915050565b6000611b856032836120cf565b9150611b9082612406565b604082019050919050565b6000611ba8601c836120cf565b9150611bb382612455565b602082019050919050565b6000611bcb6024836120cf565b9150611bd68261247e565b604082019050919050565b6000611bee6019836120cf565b9150611bf9826124cd565b602082019050919050565b6000611c11602c836120cf565b9150611c1c826124f6565b604082019050919050565b6000611c346038836120cf565b9150611c3f82612545565b604082019050919050565b6000611c57602a836120cf565b9150611c6282612594565b604082019050919050565b6000611c7a6029836120cf565b9150611c85826125e3565b604082019050919050565b6000611c9d6020836120cf565b9150611ca882612632565b602082019050919050565b6000611cc0602c836120cf565b9150611ccb8261265b565b604082019050919050565b6000611ce36029836120cf565b9150611cee826126aa565b604082019050919050565b6000611d06602f836120cf565b9150611d11826126f9565b604082019050919050565b6000611d296021836120cf565b9150611d3482612748565b604082019050919050565b6000611d4c6031836120cf565b9150611d5782612797565b604082019050919050565b611d6b81612210565b82525050565b6000611d7d8285611b47565b9150611d898284611b47565b91508190509392505050565b6000602082019050611daa6000830184611ab7565b92915050565b6000608082019050611dc56000830187611ab7565b611dd26020830186611ab7565b611ddf6040830185611d62565b8181036060830152611df18184611ad5565b905095945050505050565b6000602082019050611e116000830184611ac6565b92915050565b60006020820190508181036000830152611e318184611b0e565b905092915050565b60006060820190508181036000830152611e538186611b0e565b9050611e626020830185611d62565b611e6f6040830184611ab7565b949350505050565b60006020820190508181036000830152611e9081611b78565b9050919050565b60006020820190508181036000830152611eb081611b9b565b9050919050565b60006020820190508181036000830152611ed081611bbe565b9050919050565b60006020820190508181036000830152611ef081611be1565b9050919050565b60006020820190508181036000830152611f1081611c04565b9050919050565b60006020820190508181036000830152611f3081611c27565b9050919050565b60006020820190508181036000830152611f5081611c4a565b9050919050565b60006020820190508181036000830152611f7081611c6d565b9050919050565b60006020820190508181036000830152611f9081611c90565b9050919050565b60006020820190508181036000830152611fb081611cb3565b9050919050565b60006020820190508181036000830152611fd081611cd6565b9050919050565b60006020820190508181036000830152611ff081611cf9565b9050919050565b6000602082019050818103600083015261201081611d1c565b9050919050565b6000602082019050818103600083015261203081611d3f565b9050919050565b600060208201905061204c6000830184611d62565b92915050565b600061205c61206d565b9050612068828261228e565b919050565b6000604051905090565b600067ffffffffffffffff821115612092576120916123c6565b5b61209b826123f5565b9050602081019050919050565b600081519050919050565b600081519050919050565b600082825260208201905092915050565b600082825260208201905092915050565b600081905092915050565b60006120f682612210565b915061210183612210565b9250827fffffffffffffffffffffffffffffffffffffffffffffffffffffffffffffffff0382111561213657612135612339565b5b828201905092915050565b600061214c82612210565b915061215783612210565b92508261216757612166612368565b5b828204905092915050565b600061217d82612210565b915061218883612210565b92508282101561219b5761219a612339565b5b828203905092915050565b60006121b1826121f0565b9050919050565b60008115159050919050565b60007fffffffff0000000000000000000000000000000000000000000000000000000082169050919050565b600073ffffffffffffffffffffffffffffffffffffffff82169050919050565b6000819050919050565b82818337600083830152505050565b60005b8381101561224757808201518184015260208101905061222c565b83811115612256576000848401525b50505050565b6000600282049050600182168061227457607f821691505b6020821081141561228857612287612397565b5b50919050565b612297826123f5565b810181811067ffffffffffffffff821117156122b6576122b56123c6565b5b80604052505050565b60006122ca82612210565b91507fffffffffffffffffffffffffffffffffffffffffffffffffffffffffffffffff8214156122fd576122fc612339565b5b600182019050919050565b600061231382612210565b915061231e83612210565b92508261232e5761232d612368565b5b828206905092915050565b7f4e487b7100000000000000000000000000000000000000000000000000000000600052601160045260246000fd5b7f4e487b7100000000000000000000000000000000000000000000000000000000600052601260045260246000fd5b7f4e487b7100000000000000000000000000000000000000000000000000000000600052602260045260246000fd5b7f4e487b7100000000000000000000000000000000000000000000000000000000600052604160045260246000fd5b6000601f19601f8301169050919050565b7f4552433732313a207472616e7366657220746f206e6f6e20455243373231526560008201527f63656976657220696d706c656d656e7465720000000000000000000000000000602082015250565b7f4552433732313a20746f6b656e20616c7265616479206d696e74656400000000600082015250565b7f4552433732313a207472616e7366657220746f20746865207a65726f2061646460008201527f7265737300000000000000000000000000000000000000000000000000000000602082015250565b7f4552433732313a20617070726f766520746f2063616c6c657200000000000000600082015250565b7f4552433732313a206f70657261746f7220717565727920666f72206e6f6e657860008201527f697374656e7420746f6b656e0000000000000000000000000000000000000000602082015250565b7f4552433732313a20617070726f76652063616c6c6572206973206e6f74206f7760008201527f6e6572206e6f7220617070726f76656420666f7220616c6c0000000000000000602082015250565b7f4552433732313a2062616c616e636520717565727920666f7220746865207a6560008201527f726f206164647265737300000000000000000000000000000000000000000000602082015250565b7f4552433732313a206f776e657220717565727920666f72206e6f6e657869737460008201527f656e7420746f6b656e0000000000000000000000000000000000000000000000602082015250565b7f4552433732313a206d696e7420746f20746865207a65726f2061646472657373600082015250565b7f4552433732313a20617070726f76656420717565727920666f72206e6f6e657860008201527f697374656e7420746f6b656e0000000000000000000000000000000000000000602082015250565b7f4552433732313a207472616e73666572206f6620746f6b656e2074686174206960008201527f73206e6f74206f776e0000000000000000000000000000000000000000000000602082015250565b7f4552433732314d657461646174613a2055524920717565727920666f72206e6f60008201527f6e6578697374656e7420746f6b656e0000000000000000000000000000000000602082015250565b7f4552433732313a20617070726f76616c20746f2063757272656e74206f776e6560008201527f7200000000000000000000000000000000000000000000000000000000000000602082015250565b7f4552433732313a207472616e736665722063616c6c6572206973206e6f74206f60008201527f776e6572206e6f7220617070726f766564000000000000000000000000000000602082015250565b6127ef816121a6565b81146127fa57600080fd5b50565b612806816121b8565b811461281157600080fd5b50565b61281d816121c4565b811461282857600080fd5b50565b61283481612210565b811461283f57600080fd5b5056fea2646970667358221220daccf2d45dd556bf6c756e50f580954e665ba0d62ea52dbd072c805ef91741f364736f6c63430008040033",
  "linkReferences": {},
  "deployedLinkReferences": {}
}