{
  "_format": "hh-sol-artifact-1",
  "contractName": "BarterMarket",
  "sourceName": "contracts/BarterMarket.sol",
  "abi": [
    {
      "anonymous": false,
      "inputs": [
        {
          "indexed": false,
          "internalType": "uint256",
          "name": "offerId",
          "type": "uint256"
        },
        {
          "indexed": false,
          "internalType": "address",
          "name": "offerer",
          "type": "address"
        },
        {
          "indexed": false,
          "internalType": "address",
          "name": "target",
          "type": "address"
        }
      ],
      "name": "TradeOfferAccepted",
      "type": "event"
    },
    {
      "anonymous": false,
      "inputs": [
        {
          "indexed": false,
          "internalType": "uint256",
          "name": "offerId",
          "type": "uint256"
        },
        {
          "indexed": false,
          "internalType": "address",
          "name": "offerer",
          "type": "address"
        },
        {
          "indexed": false,
          "internalType": "address",
          "name": "target",
          "type": "address"
        }
      ],
      "name": "TradeOfferCreated",
      "type": "event"
    },
    {
      "anonymous": false,
      "inputs": [
        {
          "indexed": false,
          "internalType": "uint256",
          "name": "offerId",
          "type": "uint256"
        },
        {
          "indexed": false,
          "internalType": "address",
          "name": "offerer",
          "type": "address"
        },
        {
          "indexed": false,
          "internalType": "address",
          "name": "target",
          "type": "address"
        }
      ],
      "name": "TradeOfferRecalled",
      "type": "event"
    },
    {
      "inputs": [
        {
          "internalType": "uint256",
          "name": "_offerId",
          "type": "uint256"
        }
      ],
      "name": "acceptOffer",
      "outputs": [],
      "stateMutability": "payable",
      "type": "function"
    },
    {
      "inputs": [
        {
          "internalType": "address payable",
          "name": "_target",
          "type": "address"
        },
        {
          "components": [
            {
              "internalType": "uint256",
              "name": "offeredEther",
              "type": "uint256"
            },
            {
              "components": [
                {
                  "internalType": "uint256[]",
                  "name": "amounts",
                  "type": "uint256[]"
                },
                {
                  "internalType": "address[]",
                  "name": "contractAddresses",
                  "type": "address[]"
                }
              ],
              "internalType": "struct BarterMarket.CoinBundle",
              "name": "tokens",
              "type": "tuple"
            },
            {
              "components": [
                {
                  "internalType": "uint256[]",
                  "name": "ids",
                  "type": "uint256[]"
                },
                {
                  "internalType": "address[]",
                  "name": "contractAddresses",
                  "type": "address[]"
                }
              ],
              "internalType": "struct BarterMarket.NFTBundle",
              "name": "nfts",
              "type": "tuple"
            }
          ],
          "internalType": "struct BarterMarket.Bundle",
          "name": "offerBundle",
          "type": "tuple"
        },
        {
          "components": [
            {
              "internalType": "uint256",
              "name": "offeredEther",
              "type": "uint256"
            },
            {
              "components": [
                {
                  "internalType": "uint256[]",
                  "name": "amounts",
                  "type": "uint256[]"
                },
                {
                  "internalType": "address[]",
                  "name": "contractAddresses",
                  "type": "address[]"
                }
              ],
              "internalType": "struct BarterMarket.CoinBundle",
              "name": "tokens",
              "type": "tuple"
            },
            {
              "components": [
                {
                  "internalType": "uint256[]",
                  "name": "ids",
                  "type": "uint256[]"
                },
                {
                  "internalType": "address[]",
                  "name": "contractAddresses",
                  "type": "address[]"
                }
              ],
              "internalType": "struct BarterMarket.NFTBundle",
              "name": "nfts",
              "type": "tuple"
            }
          ],
          "internalType": "struct BarterMarket.Bundle",
          "name": "askBundle",
          "type": "tuple"
        }
      ],
      "name": "createOffer",
      "outputs": [],
      "stateMutability": "payable",
      "type": "function"
    },
    {
      "inputs": [],
      "name": "getOffersFromMe",
      "outputs": [
        {
          "components": [
            {
              "internalType": "uint256",
              "name": "id",
              "type": "uint256"
            },
            {
              "internalType": "address payable",
              "name": "offerer",
              "type": "address"
            },
            {
              "internalType": "address payable",
              "name": "target",
              "type": "address"
            },
            {
              "components": [
                {
                  "internalType": "uint256",
                  "name": "offeredEther",
                  "type": "uint256"
                },
                {
                  "components": [
                    {
                      "internalType": "uint256[]",
                      "name": "amounts",
                      "type": "uint256[]"
                    },
                    {
                      "internalType": "address[]",
                      "name": "contractAddresses",
                      "type": "address[]"
                    }
                  ],
                  "internalType": "struct BarterMarket.CoinBundle",
                  "name": "tokens",
                  "type": "tuple"
                },
                {
                  "components": [
                    {
                      "internalType": "uint256[]",
                      "name": "ids",
                      "type": "uint256[]"
                    },
                    {
                      "internalType": "address[]",
                      "name": "contractAddresses",
                      "type": "address[]"
                    }
                  ],
                  "internalType": "struct BarterMarket.NFTBundle",
                  "name": "nfts",
                  "type": "tuple"
                }
              ],
              "internalType": "struct BarterMarket.Bundle",
              "name": "offerBundle",
              "type": "tuple"
            },
            {
              "components": [
                {
                  "internalType": "uint256",
                  "name": "offeredEther",
                  "type": "uint256"
                },
                {
                  "components": [
                    {
                      "internalType": "uint256[]",
                      "name": "amounts",
                      "type": "uint256[]"
                    },
                    {
                      "internalType": "address[]",
                      "name": "contractAddresses",
                      "type": "address[]"
                    }
                  ],
                  "internalType": "struct BarterMarket.CoinBundle",
                  "name": "tokens",
                  "type": "tuple"
                },
                {
                  "components": [
                    {
                      "internalType": "uint256[]",
                      "name": "ids",
                      "type": "uint256[]"
                    },
                    {
                      "internalType": "address[]",
                      "name": "contractAddresses",
                      "type": "address[]"
                    }
                  ],
                  "internalType": "struct BarterMarket.NFTBundle",
                  "name": "nfts",
                  "type": "tuple"
                }
              ],
              "internalType": "struct BarterMarket.Bundle",
              "name": "askBundle",
              "type": "tuple"
            },
            {
              "internalType": "enum BarterMarket.State",
              "name": "state",
              "type": "uint8"
            }
          ],
          "internalType": "struct BarterMarket.TradeOffer[]",
          "name": "",
          "type": "tuple[]"
        }
      ],
      "stateMutability": "view",
      "type": "function"
    },
    {
      "inputs": [],
      "name": "getOffersToMe",
      "outputs": [
        {
          "components": [
            {
              "internalType": "uint256",
              "name": "id",
              "type": "uint256"
            },
            {
              "internalType": "address payable",
              "name": "offerer",
              "type": "address"
            },
            {
              "internalType": "address payable",
              "name": "target",
              "type": "address"
            },
            {
              "components": [
                {
                  "internalType": "uint256",
                  "name": "offeredEther",
                  "type": "uint256"
                },
                {
                  "components": [
                    {
                      "internalType": "uint256[]",
                      "name": "amounts",
                      "type": "uint256[]"
                    },
                    {
                      "internalType": "address[]",
                      "name": "contractAddresses",
                      "type": "address[]"
                    }
                  ],
                  "internalType": "struct BarterMarket.CoinBundle",
                  "name": "tokens",
                  "type": "tuple"
                },
                {
                  "components": [
                    {
                      "internalType": "uint256[]",
                      "name": "ids",
                      "type": "uint256[]"
                    },
                    {
                      "internalType": "address[]",
                      "name": "contractAddresses",
                      "type": "address[]"
                    }
                  ],
                  "internalType": "struct BarterMarket.NFTBundle",
                  "name": "nfts",
                  "type": "tuple"
                }
              ],
              "internalType": "struct BarterMarket.Bundle",
              "name": "offerBundle",
              "type": "tuple"
            },
            {
              "components": [
                {
                  "internalType": "uint256",
                  "name": "offeredEther",
                  "type": "uint256"
                },
                {
                  "components": [
                    {
                      "internalType": "uint256[]",
                      "name": "amounts",
                      "type": "uint256[]"
                    },
                    {
                      "internalType": "address[]",
                      "name": "contractAddresses",
                      "type": "address[]"
                    }
                  ],
                  "internalType": "struct BarterMarket.CoinBundle",
                  "name": "tokens",
                  "type": "tuple"
                },
                {
                  "components": [
                    {
                      "internalType": "uint256[]",
                      "name": "ids",
                      "type": "uint256[]"
                    },
                    {
                      "internalType": "address[]",
                      "name": "contractAddresses",
                      "type": "address[]"
                    }
                  ],
                  "internalType": "struct BarterMarket.NFTBundle",
                  "name": "nfts",
                  "type": "tuple"
                }
              ],
              "internalType": "struct BarterMarket.Bundle",
              "name": "askBundle",
              "type": "tuple"
            },
            {
              "internalType": "enum BarterMarket.State",
              "name": "state",
              "type": "uint8"
            }
          ],
          "internalType": "struct BarterMarket.TradeOffer[]",
          "name": "",
          "type": "tuple[]"
        }
      ],
      "stateMutability": "view",
      "type": "function"
    },
    {
      "inputs": [],
      "name": "offerCount",
      "outputs": [
        {
          "internalType": "uint256",
          "name": "",
          "type": "uint256"
        }
      ],
      "stateMutability": "view",
      "type": "function"
    },
    {
      "inputs": [
        {
          "internalType": "uint256",
          "name": "",
          "type": "uint256"
        }
      ],
      "name": "offers",
      "outputs": [
        {
          "internalType": "uint256",
          "name": "id",
          "type": "uint256"
        },
        {
          "internalType": "address payable",
          "name": "offerer",
          "type": "address"
        },
        {
          "internalType": "address payable",
          "name": "target",
          "type": "address"
        },
        {
          "components": [
            {
              "internalType": "uint256",
              "name": "offeredEther",
              "type": "uint256"
            },
            {
              "components": [
                {
                  "internalType": "uint256[]",
                  "name": "amounts",
                  "type": "uint256[]"
                },
                {
                  "internalType": "address[]",
                  "name": "contractAddresses",
                  "type": "address[]"
                }
              ],
              "internalType": "struct BarterMarket.CoinBundle",
              "name": "tokens",
              "type": "tuple"
            },
            {
              "components": [
                {
                  "internalType": "uint256[]",
                  "name": "ids",
                  "type": "uint256[]"
                },
                {
                  "internalType": "address[]",
                  "name": "contractAddresses",
                  "type": "address[]"
                }
              ],
              "internalType": "struct BarterMarket.NFTBundle",
              "name": "nfts",
              "type": "tuple"
            }
          ],
          "internalType": "struct BarterMarket.Bundle",
          "name": "offerBundle",
          "type": "tuple"
        },
        {
          "components": [
            {
              "internalType": "uint256",
              "name": "offeredEther",
              "type": "uint256"
            },
            {
              "components": [
                {
                  "internalType": "uint256[]",
                  "name": "amounts",
                  "type": "uint256[]"
                },
                {
                  "internalType": "address[]",
                  "name": "contractAddresses",
                  "type": "address[]"
                }
              ],
              "internalType": "struct BarterMarket.CoinBundle",
              "name": "tokens",
              "type": "tuple"
            },
            {
              "components": [
                {
                  "internalType": "uint256[]",
                  "name": "ids",
                  "type": "uint256[]"
                },
                {
                  "internalType": "address[]",
                  "name": "contractAddresses",
                  "type": "address[]"
                }
              ],
              "internalType": "struct BarterMarket.NFTBundle",
              "name": "nfts",
              "type": "tuple"
            }
          ],
          "internalType": "struct BarterMarket.Bundle",
          "name": "askBundle",
          "type": "tuple"
        },
        {
          "internalType": "enum BarterMarket.State",
          "name": "state",
          "type": "uint8"
        }
      ],
      "stateMutability": "view",
      "type": "function"
    },
    {
      "inputs": [
        {
          "internalType": "uint256",
          "name": "_offerId",
          "type": "uint256"
        }
      ],
      "name": "recallOffer",
      "outputs": [],
      "stateMutability": "nonpayable",
      "type": "function"
    }
  ],
  "bytecode": "0x608060405234801561001057600080fd5b5061589f80620000216000396000f3fe6080604052600436106100705760003560e01c806347fb14261161004e57806347fb1426146100f45780638a72ea6a1461011f578063c2bfc6dc14610161578063c815729d1461017d57610070565b80631115c24d14610075578063298d635a146100a05780633a96ccaf146100c9575b600080fd5b34801561008157600080fd5b5061008a610199565b6040516100979190614cda565b60405180910390f35b3480156100ac57600080fd5b506100c760048036038101906100c291906140de565b61019f565b005b3480156100d557600080fd5b506100de610452565b6040516100eb9190614996565b60405180910390f35b34801561010057600080fd5b50610109610d00565b6040516101169190614996565b60405180910390f35b34801561012b57600080fd5b50610146600480360381019061014191906140de565b6115ae565b60405161015896959493929190614d2c565b60405180910390f35b61017b60048036038101906101769190614036565b611a47565b005b610197600480360381019061019291906140de565b6122ef565b005b60005481565b3373ffffffffffffffffffffffffffffffffffffffff166001600083815260200190815260200160002060010160009054906101000a900473ffffffffffffffffffffffffffffffffffffffff1673ffffffffffffffffffffffffffffffffffffffff1614610243576040517f08c379a000000000000000000000000000000000000000000000000000000000815260040161023a90614bda565b60405180910390fd5b6000600381111561027d577f4e487b7100000000000000000000000000000000000000000000000000000000600052602160045260246000fd5b60016000838152602001908152602001600020600d0160009054906101000a900460ff1660038111156102d9577f4e487b7100000000000000000000000000000000000000000000000000000000600052602160045260246000fd5b14610319576040517f08c379a000000000000000000000000000000000000000000000000000000000815260040161031090614b7a565b60405180910390fd5b600360016000838152602001908152602001600020600d0160006101000a81548160ff02191690836003811115610379577f4e487b7100000000000000000000000000000000000000000000000000000000600052602160045260246000fd5b02179055507f9d87acce212d7be73ba564d7251018920ec7cf3a448915c8ed151f2c746ab15f81336001600085815260200190815260200160002060020160009054906101000a900473ffffffffffffffffffffffffffffffffffffffff166040516103e793929190614d9b565b60405180910390a13373ffffffffffffffffffffffffffffffffffffffff166108fc60016000848152602001908152602001600020600301600001549081150290604051600060405180830381858888f1935050505015801561044e573d6000803e3d6000fd5b5050565b60606000805467ffffffffffffffff811115610497577f4e487b7100000000000000000000000000000000000000000000000000000000600052604160045260246000fd5b6040519080825280602002602001820160405280156104d057816020015b6104bd613d8e565b8152602001906001900390816104b55790505b5090506000805b600054811015610bd4576000600381111561051b577f4e487b7100000000000000000000000000000000000000000000000000000000600052602160045260246000fd5b60016000838152602001908152602001600020600d0160009054906101000a900460ff166003811115610577577f4e487b7100000000000000000000000000000000000000000000000000000000600052602160045260246000fd5b1461058157610bc1565b3373ffffffffffffffffffffffffffffffffffffffff166001600083815260200190815260200160002060020160009054906101000a900473ffffffffffffffffffffffffffffffffffffffff1673ffffffffffffffffffffffffffffffffffffffff16146105ef57610bc1565b600160008281526020019081526020016000206040518060c0016040529081600082015481526020016001820160009054906101000a900473ffffffffffffffffffffffffffffffffffffffff1673ffffffffffffffffffffffffffffffffffffffff1673ffffffffffffffffffffffffffffffffffffffff1681526020016002820160009054906101000a900473ffffffffffffffffffffffffffffffffffffffff1673ffffffffffffffffffffffffffffffffffffffff1673ffffffffffffffffffffffffffffffffffffffff1681526020016003820160405180606001604052908160008201548152602001600182016040518060400160405290816000820180548060200260200160405190810160405280929190818152602001828054801561073c57602002820191906000526020600020905b815481526020019060010190808311610728575b50505050508152602001600182018054806020026020016040519081016040528092919081815260200182805480156107ca57602002820191906000526020600020905b8160009054906101000a900473ffffffffffffffffffffffffffffffffffffffff1673ffffffffffffffffffffffffffffffffffffffff1681526020019060010190808311610780575b5050505050815250508152602001600382016040518060400160405290816000820180548060200260200160405190810160405280929190818152602001828054801561083657602002820191906000526020600020905b815481526020019060010190808311610822575b50505050508152602001600182018054806020026020016040519081016040528092919081815260200182805480156108c457602002820191906000526020600020905b8160009054906101000a900473ffffffffffffffffffffffffffffffffffffffff1673ffffffffffffffffffffffffffffffffffffffff168152602001906001019080831161087a575b5050505050815250508152505081526020016008820160405180606001604052908160008201548152602001600182016040518060400160405290816000820180548060200260200160405190810160405280929190818152602001828054801561094e57602002820191906000526020600020905b81548152602001906001019080831161093a575b50505050508152602001600182018054806020026020016040519081016040528092919081815260200182805480156109dc57602002820191906000526020600020905b8160009054906101000a900473ffffffffffffffffffffffffffffffffffffffff1673ffffffffffffffffffffffffffffffffffffffff1681526020019060010190808311610992575b50505050508152505081526020016003820160405180604001604052908160008201805480602002602001604051908101604052809291908181526020018280548015610a4857602002820191906000526020600020905b815481526020019060010190808311610a34575b5050505050815260200160018201805480602002602001604051908101604052809291908181526020018280548015610ad657602002820191906000526020600020905b8160009054906101000a900473ffffffffffffffffffffffffffffffffffffffff1673ffffffffffffffffffffffffffffffffffffffff1681526020019060010190808311610a8c575b505050505081525050815250508152602001600d820160009054906101000a900460ff166003811115610b32577f4e487b7100000000000000000000000000000000000000000000000000000000600052602160045260246000fd5b6003811115610b6a577f4e487b7100000000000000000000000000000000000000000000000000000000600052602160045260246000fd5b81525050838381518110610ba7577f4e487b7100000000000000000000000000000000000000000000000000000000600052603260045260246000fd5b60200260200101819052508180610bbd906150e3565b9250505b8080610bcc906150e3565b9150506104d7565b5060008167ffffffffffffffff811115610c17577f4e487b7100000000000000000000000000000000000000000000000000000000600052604160045260246000fd5b604051908082528060200260200182016040528015610c5057816020015b610c3d613d8e565b815260200190600190039081610c355790505b50905060005b82811015610cf657838181518110610c97577f4e487b7100000000000000000000000000000000000000000000000000000000600052603260045260246000fd5b6020026020010151828281518110610cd8577f4e487b7100000000000000000000000000000000000000000000000000000000600052603260045260246000fd5b60200260200101819052508080610cee906150e3565b915050610c56565b5080935050505090565b60606000805467ffffffffffffffff811115610d45577f4e487b7100000000000000000000000000000000000000000000000000000000600052604160045260246000fd5b604051908082528060200260200182016040528015610d7e57816020015b610d6b613d8e565b815260200190600190039081610d635790505b5090506000805b6000548110156114825760006003811115610dc9577f4e487b7100000000000000000000000000000000000000000000000000000000600052602160045260246000fd5b60016000838152602001908152602001600020600d0160009054906101000a900460ff166003811115610e25577f4e487b7100000000000000000000000000000000000000000000000000000000600052602160045260246000fd5b14610e2f5761146f565b3373ffffffffffffffffffffffffffffffffffffffff166001600083815260200190815260200160002060010160009054906101000a900473ffffffffffffffffffffffffffffffffffffffff1673ffffffffffffffffffffffffffffffffffffffff1614610e9d5761146f565b600160008281526020019081526020016000206040518060c0016040529081600082015481526020016001820160009054906101000a900473ffffffffffffffffffffffffffffffffffffffff1673ffffffffffffffffffffffffffffffffffffffff1673ffffffffffffffffffffffffffffffffffffffff1681526020016002820160009054906101000a900473ffffffffffffffffffffffffffffffffffffffff1673ffffffffffffffffffffffffffffffffffffffff1673ffffffffffffffffffffffffffffffffffffffff16815260200160038201604051806060016040529081600082015481526020016001820160405180604001604052908160008201805480602002602001604051908101604052809291908181526020018280548015610fea57602002820191906000526020600020905b815481526020019060010190808311610fd6575b505050505081526020016001820180548060200260200160405190810160405280929190818152602001828054801561107857602002820191906000526020600020905b8160009054906101000a900473ffffffffffffffffffffffffffffffffffffffff1673ffffffffffffffffffffffffffffffffffffffff168152602001906001019080831161102e575b505050505081525050815260200160038201604051806040016040529081600082018054806020026020016040519081016040528092919081815260200182805480156110e457602002820191906000526020600020905b8154815260200190600101908083116110d0575b505050505081526020016001820180548060200260200160405190810160405280929190818152602001828054801561117257602002820191906000526020600020905b8160009054906101000a900473ffffffffffffffffffffffffffffffffffffffff1673ffffffffffffffffffffffffffffffffffffffff1681526020019060010190808311611128575b505050505081525050815250508152602001600882016040518060600160405290816000820154815260200160018201604051806040016040529081600082018054806020026020016040519081016040528092919081815260200182805480156111fc57602002820191906000526020600020905b8154815260200190600101908083116111e8575b505050505081526020016001820180548060200260200160405190810160405280929190818152602001828054801561128a57602002820191906000526020600020905b8160009054906101000a900473ffffffffffffffffffffffffffffffffffffffff1673ffffffffffffffffffffffffffffffffffffffff1681526020019060010190808311611240575b505050505081525050815260200160038201604051806040016040529081600082018054806020026020016040519081016040528092919081815260200182805480156112f657602002820191906000526020600020905b8154815260200190600101908083116112e2575b505050505081526020016001820180548060200260200160405190810160405280929190818152602001828054801561138457602002820191906000526020600020905b8160009054906101000a900473ffffffffffffffffffffffffffffffffffffffff1673ffffffffffffffffffffffffffffffffffffffff168152602001906001019080831161133a575b505050505081525050815250508152602001600d820160009054906101000a900460ff1660038111156113e0577f4e487b7100000000000000000000000000000000000000000000000000000000600052602160045260246000fd5b6003811115611418577f4e487b7100000000000000000000000000000000000000000000000000000000600052602160045260246000fd5b81525050838381518110611455577f4e487b7100000000000000000000000000000000000000000000000000000000600052603260045260246000fd5b6020026020010181905250818061146b906150e3565b9250505b808061147a906150e3565b915050610d85565b5060008167ffffffffffffffff8111156114c5577f4e487b7100000000000000000000000000000000000000000000000000000000600052604160045260246000fd5b6040519080825280602002602001820160405280156114fe57816020015b6114eb613d8e565b8152602001906001900390816114e35790505b50905060005b828110156115a457838181518110611545577f4e487b7100000000000000000000000000000000000000000000000000000000600052603260045260246000fd5b6020026020010151828281518110611586577f4e487b7100000000000000000000000000000000000000000000000000000000600052603260045260246000fd5b6020026020010181905250808061159c906150e3565b915050611504565b5080935050505090565b60016020528060005260406000206000915090508060000154908060010160009054906101000a900473ffffffffffffffffffffffffffffffffffffffff16908060020160009054906101000a900473ffffffffffffffffffffffffffffffffffffffff16908060030160405180606001604052908160008201548152602001600182016040518060400160405290816000820180548060200260200160405190810160405280929190818152602001828054801561168c57602002820191906000526020600020905b815481526020019060010190808311611678575b505050505081526020016001820180548060200260200160405190810160405280929190818152602001828054801561171a57602002820191906000526020600020905b8160009054906101000a900473ffffffffffffffffffffffffffffffffffffffff1673ffffffffffffffffffffffffffffffffffffffff16815260200190600101908083116116d0575b5050505050815250508152602001600382016040518060400160405290816000820180548060200260200160405190810160405280929190818152602001828054801561178657602002820191906000526020600020905b815481526020019060010190808311611772575b505050505081526020016001820180548060200260200160405190810160405280929190818152602001828054801561181457602002820191906000526020600020905b8160009054906101000a900473ffffffffffffffffffffffffffffffffffffffff1673ffffffffffffffffffffffffffffffffffffffff16815260200190600101908083116117ca575b50505050508152505081525050908060080160405180606001604052908160008201548152602001600182016040518060400160405290816000820180548060200260200160405190810160405280929190818152602001828054801561189a57602002820191906000526020600020905b815481526020019060010190808311611886575b505050505081526020016001820180548060200260200160405190810160405280929190818152602001828054801561192857602002820191906000526020600020905b8160009054906101000a900473ffffffffffffffffffffffffffffffffffffffff1673ffffffffffffffffffffffffffffffffffffffff16815260200190600101908083116118de575b5050505050815250508152602001600382016040518060400160405290816000820180548060200260200160405190810160405280929190818152602001828054801561199457602002820191906000526020600020905b815481526020019060010190808311611980575b5050505050815260200160018201805480602002602001604051908101604052809291908181526020018280548015611a2257602002820191906000526020600020905b8160009054906101000a900473ffffffffffffffffffffffffffffffffffffffff1673ffffffffffffffffffffffffffffffffffffffff16815260200190600101908083116119d8575b505050505081525050815250509080600d0160009054906101000a900460ff16905086565b6000826000013590506000838060200190611a629190614e80565b8060200190611a719190614dd2565b80806020026020016040519081016040528093929190818152602001838360200280828437600081840152601f19601f8201169050808301925050505050505090506000848060200190611ac59190614e80565b8060000190611ad49190614e29565b80806020026020016040519081016040528093929190818152602001838360200280828437600081840152601f19601f8201169050808301925050505050505090506000858060400190611b289190614ea4565b8060200190611b379190614dd2565b80806020026020016040519081016040528093929190818152602001838360200280828437600081840152601f19601f8201169050808301925050505050505090506000868060400190611b8b9190614ea4565b8060000190611b9a9190614e29565b80806020026020016040519081016040528093929190818152602001838360200280828437600081840152601f19601f8201169050808301925050505050505090506000866000013590506000878060200190611bf79190614e80565b8060200190611c069190614dd2565b80806020026020016040519081016040528093929190818152602001838360200280828437600081840152601f19601f8201169050808301925050505050505090506000888060200190611c5a9190614e80565b8060000190611c699190614e29565b80806020026020016040519081016040528093929190818152602001838360200280828437600081840152601f19601f8201169050808301925050505050505090506000898060400190611cbd9190614ea4565b8060200190611ccc9190614dd2565b80806020026020016040519081016040528093929190818152602001838360200280828437600081840152601f19601f82011690508083019250505050505050905060008a8060400190611d209190614ea4565b8060000190611d2f9190614e29565b80806020026020016040519081016040528093929190818152602001838360200280828437600081840152601f19601f820116905080830192505050505050509050600073ffffffffffffffffffffffffffffffffffffffff168d73ffffffffffffffffffffffffffffffffffffffff161415611de1576040517f08c379a0000000000000000000000000000000000000000000000000000000008152600401611dd890614a3a565b60405180910390fd5b348a14611e23576040517f08c379a0000000000000000000000000000000000000000000000000000000008152600401611e1a90614c1a565b60405180910390fd5b8751895114611e67576040517f08c379a0000000000000000000000000000000000000000000000000000000008152600401611e5e90614bba565b60405180910390fd5b8551875114611eab576040517f08c379a0000000000000000000000000000000000000000000000000000000008152600401611ea290614a1a565b60405180910390fd5b8251845114611eef576040517f08c379a0000000000000000000000000000000000000000000000000000000008152600401611ee690614c7a565b60405180910390fd5b8051825114611f33576040517f08c379a0000000000000000000000000000000000000000000000000000000008152600401611f2a90614c3a565b60405180910390fd5b6040518060c0016040528060005481526020013373ffffffffffffffffffffffffffffffffffffffff1681526020018e73ffffffffffffffffffffffffffffffffffffffff16815260200160405180606001604052808d815260200160405180604001604052808d81526020018e815250815260200160405180604001604052808b81526020018c815250815250815260200160405180606001604052808881526020016040518060400160405280888152602001898152508152602001604051806040016040528086815260200187815250815250815260200160006003811115612048577f4e487b7100000000000000000000000000000000000000000000000000000000600052602160045260246000fd5b81525060016000805481526020019081526020016000206000820151816000015560208201518160010160006101000a81548173ffffffffffffffffffffffffffffffffffffffff021916908373ffffffffffffffffffffffffffffffffffffffff16021790555060408201518160020160006101000a81548173ffffffffffffffffffffffffffffffffffffffff021916908373ffffffffffffffffffffffffffffffffffffffff16021790555060608201518160030160008201518160000155602082015181600101600082015181600001908051906020019061212f929190613e34565b50602082015181600101908051906020019061214c929190613e81565b5050506040820151816003016000820151816000019080519060200190612174929190613e34565b506020820151816001019080519060200190612191929190613e81565b50505050506080820151816008016000820151816000015560208201518160010160008201518160000190805190602001906121ce929190613e34565b5060208201518160010190805190602001906121eb929190613e81565b5050506040820151816003016000820151816000019080519060200190612213929190613e34565b506020820151816001019080519060200190612230929190613e81565b505050505060a082015181600d0160006101000a81548160ff02191690836003811115612286577f4e487b7100000000000000000000000000000000000000000000000000000000600052602160045260246000fd5b02179055509050507f8038858435123f513e04505978325fc71ce1b97b58443a57172cb7ed1f62c82e600054338f6040516122c393929190614d9b565b60405180910390a160016000546122da9190614fa5565b60008190555050505050505050505050505050565b6000600160008381526020019081526020016000206040518060c0016040529081600082015481526020016001820160009054906101000a900473ffffffffffffffffffffffffffffffffffffffff1673ffffffffffffffffffffffffffffffffffffffff1673ffffffffffffffffffffffffffffffffffffffff1681526020016002820160009054906101000a900473ffffffffffffffffffffffffffffffffffffffff1673ffffffffffffffffffffffffffffffffffffffff1673ffffffffffffffffffffffffffffffffffffffff1681526020016003820160405180606001604052908160008201548152602001600182016040518060400160405290816000820180548060200260200160405190810160405280929190818152602001828054801561243e57602002820191906000526020600020905b81548152602001906001019080831161242a575b50505050508152602001600182018054806020026020016040519081016040528092919081815260200182805480156124cc57602002820191906000526020600020905b8160009054906101000a900473ffffffffffffffffffffffffffffffffffffffff1673ffffffffffffffffffffffffffffffffffffffff1681526020019060010190808311612482575b5050505050815250508152602001600382016040518060400160405290816000820180548060200260200160405190810160405280929190818152602001828054801561253857602002820191906000526020600020905b815481526020019060010190808311612524575b50505050508152602001600182018054806020026020016040519081016040528092919081815260200182805480156125c657602002820191906000526020600020905b8160009054906101000a900473ffffffffffffffffffffffffffffffffffffffff1673ffffffffffffffffffffffffffffffffffffffff168152602001906001019080831161257c575b5050505050815250508152505081526020016008820160405180606001604052908160008201548152602001600182016040518060400160405290816000820180548060200260200160405190810160405280929190818152602001828054801561265057602002820191906000526020600020905b81548152602001906001019080831161263c575b50505050508152602001600182018054806020026020016040519081016040528092919081815260200182805480156126de57602002820191906000526020600020905b8160009054906101000a900473ffffffffffffffffffffffffffffffffffffffff1673ffffffffffffffffffffffffffffffffffffffff1681526020019060010190808311612694575b5050505050815250508152602001600382016040518060400160405290816000820180548060200260200160405190810160405280929190818152602001828054801561274a57602002820191906000526020600020905b815481526020019060010190808311612736575b50505050508152602001600182018054806020026020016040519081016040528092919081815260200182805480156127d857602002820191906000526020600020905b8160009054906101000a900473ffffffffffffffffffffffffffffffffffffffff1673ffffffffffffffffffffffffffffffffffffffff168152602001906001019080831161278e575b505050505081525050815250508152602001600d820160009054906101000a900460ff166003811115612834577f4e487b7100000000000000000000000000000000000000000000000000000000600052602160045260246000fd5b600381111561286c577f4e487b7100000000000000000000000000000000000000000000000000000000600052602160045260246000fd5b8152505090503373ffffffffffffffffffffffffffffffffffffffff16816040015173ffffffffffffffffffffffffffffffffffffffff16146128e4576040517f08c379a00000000000000000000000000000000000000000000000000000000081526004016128db90614b9a565b60405180910390fd5b348160800151600001511461292e576040517f08c379a000000000000000000000000000000000000000000000000000000000815260040161292590614b1a565b60405180910390fd5b60006003811115612968577f4e487b7100000000000000000000000000000000000000000000000000000000600052602160045260246000fd5b8160a0015160038111156129a5577f4e487b7100000000000000000000000000000000000000000000000000000000600052602160045260246000fd5b146129e5576040517f08c379a00000000000000000000000000000000000000000000000000000000081526004016129dc90614b5a565b60405180910390fd5b478160600151600001511115612a30576040517f08c379a0000000000000000000000000000000000000000000000000000000008152600401612a2790614afa565b60405180910390fd5b600260016000848152602001908152602001600020600d0160006101000a81548160ff02191690836003811115612a90577f4e487b7100000000000000000000000000000000000000000000000000000000600052602160045260246000fd5b0217905550600081608001516020015190506000826080015160400151905060005b826020015151811015612ef057600083602001518281518110612afe577f4e487b7100000000000000000000000000000000000000000000000000000000600052603260045260246000fd5b60200260200101519050600084600001518381518110612b47577f4e487b7100000000000000000000000000000000000000000000000000000000600052603260045260246000fd5b6020026020010151905084600001518381518110612b8e577f4e487b7100000000000000000000000000000000000000000000000000000000600052603260045260246000fd5b60200260200101518273ffffffffffffffffffffffffffffffffffffffff166370a0823188604001516040518263ffffffff1660e01b8152600401612bd391906148bb565b60206040518083038186803b158015612beb57600080fd5b505afa158015612bff573d6000803e3d6000fd5b505050506040513d601f19601f82011682018060405250810190612c239190614107565b1015612c64576040517f08c379a0000000000000000000000000000000000000000000000000000000008152600401612c5b90614b3a565b60405180910390fd5b808273ffffffffffffffffffffffffffffffffffffffff1663dd62ed3e8860400151306040518363ffffffff1660e01b8152600401612ca49291906148d6565b60206040518083038186803b158015612cbc57600080fd5b505afa158015612cd0573d6000803e3d6000fd5b505050506040513d601f19601f82011682018060405250810190612cf49190614107565b1015612d35576040517f08c379a0000000000000000000000000000000000000000000000000000000008152600401612d2c90614a7a565b60405180910390fd5b60008273ffffffffffffffffffffffffffffffffffffffff166370a0823188602001516040518263ffffffff1660e01b8152600401612d7491906148bb565b60206040518083038186803b158015612d8c57600080fd5b505afa158015612da0573d6000803e3d6000fd5b505050506040513d601f19601f82011682018060405250810190612dc49190614107565b9050612dfb87604001518860200151848673ffffffffffffffffffffffffffffffffffffffff16613a98909392919063ffffffff16565b60008373ffffffffffffffffffffffffffffffffffffffff166370a0823189602001516040518263ffffffff1660e01b8152600401612e3a91906148bb565b60206040518083038186803b158015612e5257600080fd5b505afa158015612e66573d6000803e3d6000fd5b505050506040513d601f19601f82011682018060405250810190612e8a9190614107565b9050808383612e999190614fa5565b14612ed9576040517f08c379a0000000000000000000000000000000000000000000000000000000008152600401612ed090614cba565b60405180910390fd5b505050508080612ee8906150e3565b915050612ab2565b5060005b81602001515181101561321d57600082602001518281518110612f40577f4e487b7100000000000000000000000000000000000000000000000000000000600052603260045260246000fd5b602002602001015190503373ffffffffffffffffffffffffffffffffffffffff168173ffffffffffffffffffffffffffffffffffffffff16636352211e85600001518581518110612fba577f4e487b7100000000000000000000000000000000000000000000000000000000600052603260045260246000fd5b60200260200101516040518263ffffffff1660e01b8152600401612fde9190614cda565b60206040518083038186803b158015612ff657600080fd5b505afa15801561300a573d6000803e3d6000fd5b505050506040513d601f19601f8201168201806040525081019061302e919061400d565b73ffffffffffffffffffffffffffffffffffffffff1614613084576040517f08c379a000000000000000000000000000000000000000000000000000000000815260040161307b906149fa565b60405180910390fd5b8073ffffffffffffffffffffffffffffffffffffffff1663e985e9c533306040518363ffffffff1660e01b81526004016130bf929190614936565b60206040518083038186803b1580156130d757600080fd5b505afa1580156130eb573d6000803e3d6000fd5b505050506040513d601f19601f8201168201806040525081019061310f91906140b5565b61314e576040517f08c379a000000000000000000000000000000000000000000000000000000000815260040161314590614a9a565b60405180910390fd5b8073ffffffffffffffffffffffffffffffffffffffff166342842e0e86604001518760200151866000015186815181106131b1577f4e487b7100000000000000000000000000000000000000000000000000000000600052603260045260246000fd5b60200260200101516040518463ffffffff1660e01b81526004016131d7939291906148ff565b600060405180830381600087803b1580156131f157600080fd5b505af1158015613205573d6000803e3d6000fd5b50505050508080613215906150e3565b915050612ef4565b50600083606001516020015190506000846060015160400151905060005b82602001515181101561367957600083602001518281518110613287577f4e487b7100000000000000000000000000000000000000000000000000000000600052603260045260246000fd5b602002602001015190506000846000015183815181106132d0577f4e487b7100000000000000000000000000000000000000000000000000000000600052603260045260246000fd5b6020026020010151905084600001518381518110613317577f4e487b7100000000000000000000000000000000000000000000000000000000600052603260045260246000fd5b60200260200101518273ffffffffffffffffffffffffffffffffffffffff166370a082318a602001516040518263ffffffff1660e01b815260040161335c91906148bb565b60206040518083038186803b15801561337457600080fd5b505afa158015613388573d6000803e3d6000fd5b505050506040513d601f19601f820116820180604052508101906133ac9190614107565b10156133ed576040517f08c379a00000000000000000000000000000000000000000000000000000000081526004016133e4906149da565b60405180910390fd5b808273ffffffffffffffffffffffffffffffffffffffff1663dd62ed3e8a60200151306040518363ffffffff1660e01b815260040161342d9291906148d6565b60206040518083038186803b15801561344557600080fd5b505afa158015613459573d6000803e3d6000fd5b505050506040513d601f19601f8201168201806040525081019061347d9190614107565b10156134be576040517f08c379a00000000000000000000000000000000000000000000000000000000081526004016134b590614a5a565b60405180910390fd5b60008273ffffffffffffffffffffffffffffffffffffffff166370a082318a604001516040518263ffffffff1660e01b81526004016134fd91906148bb565b60206040518083038186803b15801561351557600080fd5b505afa158015613529573d6000803e3d6000fd5b505050506040513d601f19601f8201168201806040525081019061354d9190614107565b905061358489602001518a60400151848673ffffffffffffffffffffffffffffffffffffffff16613a98909392919063ffffffff16565b60008373ffffffffffffffffffffffffffffffffffffffff166370a082318b604001516040518263ffffffff1660e01b81526004016135c391906148bb565b60206040518083038186803b1580156135db57600080fd5b505afa1580156135ef573d6000803e3d6000fd5b505050506040513d601f19601f820116820180604052508101906136139190614107565b90508083836136229190614fa5565b14613662576040517f08c379a000000000000000000000000000000000000000000000000000000000815260040161365990614cba565b60405180910390fd5b505050508080613671906150e3565b91505061323b565b5060005b8160200151518110156139ae576000826020015182815181106136c9577f4e487b7100000000000000000000000000000000000000000000000000000000600052603260045260246000fd5b60200260200101519050866020015173ffffffffffffffffffffffffffffffffffffffff168173ffffffffffffffffffffffffffffffffffffffff16636352211e85600001518581518110613747577f4e487b7100000000000000000000000000000000000000000000000000000000600052603260045260246000fd5b60200260200101516040518263ffffffff1660e01b815260040161376b9190614cda565b60206040518083038186803b15801561378357600080fd5b505afa158015613797573d6000803e3d6000fd5b505050506040513d601f19601f820116820180604052508101906137bb919061400d565b73ffffffffffffffffffffffffffffffffffffffff1614613811576040517f08c379a000000000000000000000000000000000000000000000000000000000815260040161380890614aba565b60405180910390fd5b8073ffffffffffffffffffffffffffffffffffffffff1663e985e9c58860200151306040518363ffffffff1660e01b81526004016138509291906148d6565b60206040518083038186803b15801561386857600080fd5b505afa15801561387c573d6000803e3d6000fd5b505050506040513d601f19601f820116820180604052508101906138a091906140b5565b6138df576040517f08c379a00000000000000000000000000000000000000000000000000000000081526004016138d690614c9a565b60405180910390fd5b8073ffffffffffffffffffffffffffffffffffffffff166323b872dd8860200151896040015186600001518681518110613942577f4e487b7100000000000000000000000000000000000000000000000000000000600052603260045260246000fd5b60200260200101516040518463ffffffff1660e01b8152600401613968939291906148ff565b600060405180830381600087803b15801561398257600080fd5b505af1158015613996573d6000803e3d6000fd5b505050505080806139a6906150e3565b91505061367d565b50846020015173ffffffffffffffffffffffffffffffffffffffff166108fc349081150290604051600060405180830381858888f193505050501580156139f9573d6000803e3d6000fd5b50846040015173ffffffffffffffffffffffffffffffffffffffff166108fc8660600151600001519081150290604051600060405180830381858888f19350505050158015613a4c573d6000803e3d6000fd5b507f1368b7350e5e5d1defe357e4992c04f76331b806f36fb57436abb2354d5035338686602001518760400151604051613a8893929190614cf5565b60405180910390a1505050505050565b613b1b846323b872dd60e01b858585604051602401613ab99392919061495f565b604051602081830303815290604052907bffffffffffffffffffffffffffffffffffffffffffffffffffffffff19166020820180517bffffffffffffffffffffffffffffffffffffffffffffffffffffffff8381831617835250505050613b21565b50505050565b6000613b83826040518060400160405280602081526020017f5361666545524332303a206c6f772d6c6576656c2063616c6c206661696c65648152508573ffffffffffffffffffffffffffffffffffffffff16613be89092919063ffffffff16565b9050600081511115613be35780806020019051810190613ba391906140b5565b613be2576040517f08c379a0000000000000000000000000000000000000000000000000000000008152600401613bd990614c5a565b60405180910390fd5b5b505050565b6060613bf78484600085613c00565b90509392505050565b606082471015613c45576040517f08c379a0000000000000000000000000000000000000000000000000000000008152600401613c3c90614ada565b60405180910390fd5b613c4e85613d14565b613c8d576040517f08c379a0000000000000000000000000000000000000000000000000000000008152600401613c8490614bfa565b60405180910390fd5b6000808673ffffffffffffffffffffffffffffffffffffffff168587604051613cb691906148a4565b60006040518083038185875af1925050503d8060008114613cf3576040519150601f19603f3d011682016040523d82523d6000602084013e613cf8565b606091505b5091509150613d08828286613d27565b92505050949350505050565b600080823b905060008111915050919050565b60608315613d3757829050613d87565b600083511115613d4a5782518084602001fd5b816040517f08c379a0000000000000000000000000000000000000000000000000000000008152600401613d7e91906149b8565b60405180910390fd5b9392505050565b6040518060c0016040528060008152602001600073ffffffffffffffffffffffffffffffffffffffff168152602001600073ffffffffffffffffffffffffffffffffffffffff168152602001613de2613f0b565b8152602001613def613f0b565b815260200160006003811115613e2e577f4e487b7100000000000000000000000000000000000000000000000000000000600052602160045260246000fd5b81525090565b828054828255906000526020600020908101928215613e70579160200282015b82811115613e6f578251825591602001919060010190613e54565b5b509050613e7d9190613f38565b5090565b828054828255906000526020600020908101928215613efa579160200282015b82811115613ef95782518260006101000a81548173ffffffffffffffffffffffffffffffffffffffff021916908373ffffffffffffffffffffffffffffffffffffffff16021790555091602001919060010190613ea1565b5b509050613f079190613f38565b5090565b604051806060016040528060008152602001613f25613f55565b8152602001613f32613f6f565b81525090565b5b80821115613f51576000816000905550600101613f39565b5090565b604051806040016040528060608152602001606081525090565b604051806040016040528060608152602001606081525090565b600081519050613f988161580d565b92915050565b600081359050613fad81615824565b92915050565b600081519050613fc28161583b565b92915050565b600060608284031215613fda57600080fd5b81905092915050565b600081359050613ff281615852565b92915050565b60008151905061400781615852565b92915050565b60006020828403121561401f57600080fd5b600061402d84828501613f89565b91505092915050565b60008060006060848603121561404b57600080fd5b600061405986828701613f9e565b935050602084013567ffffffffffffffff81111561407657600080fd5b61408286828701613fc8565b925050604084013567ffffffffffffffff81111561409f57600080fd5b6140ab86828701613fc8565b9150509250925092565b6000602082840312156140c757600080fd5b60006140d584828501613fb3565b91505092915050565b6000602082840312156140f057600080fd5b60006140fe84828501613fe3565b91505092915050565b60006020828403121561411957600080fd5b600061412784828501613ff8565b91505092915050565b600061413c83836141a1565b60208301905092915050565b600061415483836147f6565b905092915050565b60006141688383614886565b60208301905092915050565b61417d81615068565b82525050565b61418c8161500d565b82525050565b61419b8161500d565b82525050565b6141aa81614ffb565b82525050565b6141b981614ffb565b82525050565b60006141ca82614ef8565b6141d48185614f56565b93506141df83614ec8565b8060005b838110156142105781516141f78882614130565b975061420283614f2f565b9250506001810190506141e3565b5085935050505092915050565b600061422882614f03565b6142328185614f67565b93508360208202850161424485614ed8565b8060005b8581101561428057848403895281516142618582614148565b945061426c83614f3c565b925060208a01995050600181019050614248565b50829750879550505050505092915050565b600061429d82614f0e565b6142a78185614f78565b93506142b283614ee8565b8060005b838110156142e35781516142ca888261415c565b97506142d583614f49565b9250506001810190506142b6565b5085935050505092915050565b60006142fb82614f19565b6143058185614f89565b93506143158185602086016150b0565b80840191505092915050565b61432a8161507a565b82525050565b6143398161507a565b82525050565b600061434a82614f24565b6143548185614f94565b93506143648185602086016150b0565b61436d8161518a565b840191505092915050565b6000614385602383614f94565b91506143908261519b565b604082019050919050565b60006143a8602083614f94565b91506143b3826151ea565b602082019050919050565b60006143cb603783614f94565b91506143d682615213565b604082019050919050565b60006143ee601983614f94565b91506143f982615262565b602082019050919050565b6000614411602583614f94565b915061441c8261528b565b604082019050919050565b6000614434602683614f94565b915061443f826152da565b604082019050919050565b6000614457603283614f94565b915061446282615329565b604082019050919050565b600061447a602a83614f94565b915061448582615378565b604082019050919050565b600061449d602683614f94565b91506144a8826153c7565b604082019050919050565b60006144c0601a83614f94565b91506144cb82615416565b602082019050919050565b60006144e3603383614f94565b91506144ee8261543f565b604082019050919050565b6000614506602483614f94565b91506145118261548e565b604082019050919050565b6000614529602183614f94565b9150614534826154dd565b604082019050919050565b600061454c601e83614f94565b91506145578261552c565b602082019050919050565b600061456f601e83614f94565b915061457a82615555565b602082019050919050565b6000614592603c83614f94565b915061459d8261557e565b604082019050919050565b60006145b5601883614f94565b91506145c0826155cd565b602082019050919050565b60006145d8601d83614f94565b91506145e3826155f6565b602082019050919050565b60006145fb602983614f94565b91506146068261561f565b604082019050919050565b600061461e603583614f94565b91506146298261566e565b604082019050919050565b6000614641602a83614f94565b915061464c826156bd565b604082019050919050565b6000614664603a83614f94565b915061466f8261570c565b604082019050919050565b6000614687603183614f94565b91506146928261575b565b604082019050919050565b60006146aa603483614f94565b91506146b5826157aa565b604082019050919050565b60006060830160008301516146d86000860182614886565b50602083015184820360208601526146f0828261476e565b9150506040830151848203604086015261470a82826147b2565b9150508091505092915050565b600060608301600083015161472f6000860182614886565b5060208301518482036020860152614747828261476e565b9150506040830151848203604086015261476182826147b2565b9150508091505092915050565b6000604083016000830151848203600086015261478b8282614292565b915050602083015184820360208601526147a582826141bf565b9150508091505092915050565b600060408301600083015184820360008601526147cf8282614292565b915050602083015184820360208601526147e982826141bf565b9150508091505092915050565b600060c08301600083015161480e6000860182614886565b5060208301516148216020860182614183565b5060408301516148346040860182614183565b506060830151848203606086015261484c82826146c0565b9150506080830151848203608086015261486682826146c0565b91505060a083015161487b60a0860182614321565b508091505092915050565b61488f8161505e565b82525050565b61489e8161505e565b82525050565b60006148b082846142f0565b915081905092915050565b60006020820190506148d06000830184614174565b92915050565b60006040820190506148eb6000830185614174565b6148f860208301846141b0565b9392505050565b60006060820190506149146000830186614174565b6149216020830185614174565b61492e6040830184614895565b949350505050565b600060408201905061494b60008301856141b0565b61495860208301846141b0565b9392505050565b600060608201905061497460008301866141b0565b61498160208301856141b0565b61498e6040830184614895565b949350505050565b600060208201905081810360008301526149b0818461421d565b905092915050565b600060208201905081810360008301526149d2818461433f565b905092915050565b600060208201905081810360008301526149f381614378565b9050919050565b60006020820190508181036000830152614a138161439b565b9050919050565b60006020820190508181036000830152614a33816143be565b9050919050565b60006020820190508181036000830152614a53816143e1565b9050919050565b60006020820190508181036000830152614a7381614404565b9050919050565b60006020820190508181036000830152614a9381614427565b9050919050565b60006020820190508181036000830152614ab38161444a565b9050919050565b60006020820190508181036000830152614ad38161446d565b9050919050565b60006020820190508181036000830152614af381614490565b9050919050565b60006020820190508181036000830152614b13816144b3565b9050919050565b60006020820190508181036000830152614b33816144d6565b9050919050565b60006020820190508181036000830152614b53816144f9565b9050919050565b60006020820190508181036000830152614b738161451c565b9050919050565b60006020820190508181036000830152614b938161453f565b9050919050565b60006020820190508181036000830152614bb381614562565b9050919050565b60006020820190508181036000830152614bd381614585565b9050919050565b60006020820190508181036000830152614bf3816145a8565b9050919050565b60006020820190508181036000830152614c13816145cb565b9050919050565b60006020820190508181036000830152614c33816145ee565b9050919050565b60006020820190508181036000830152614c5381614611565b9050919050565b60006020820190508181036000830152614c7381614634565b9050919050565b60006020820190508181036000830152614c9381614657565b9050919050565b60006020820190508181036000830152614cb38161467a565b9050919050565b60006020820190508181036000830152614cd38161469d565b9050919050565b6000602082019050614cef6000830184614895565b92915050565b6000606082019050614d0a6000830186614895565b614d176020830185614174565b614d246040830184614174565b949350505050565b600060c082019050614d416000830189614895565b614d4e6020830188614192565b614d5b6040830187614192565b8181036060830152614d6d8186614717565b90508181036080830152614d818185614717565b9050614d9060a0830184614330565b979650505050505050565b6000606082019050614db06000830186614895565b614dbd60208301856141b0565b614dca6040830184614174565b949350505050565b60008083356001602003843603038112614deb57600080fd5b80840192508235915067ffffffffffffffff821115614e0957600080fd5b602083019250602082023603831315614e2157600080fd5b509250929050565b60008083356001602003843603038112614e4257600080fd5b80840192508235915067ffffffffffffffff821115614e6057600080fd5b602083019250602082023603831315614e7857600080fd5b509250929050565b600082356001604003833603038112614e9857600080fd5b80830191505092915050565b600082356001604003833603038112614ebc57600080fd5b80830191505092915050565b6000819050602082019050919050565b6000819050602082019050919050565b6000819050602082019050919050565b600081519050919050565b600081519050919050565b600081519050919050565b600081519050919050565b600081519050919050565b6000602082019050919050565b6000602082019050919050565b6000602082019050919050565b600082825260208201905092915050565b600082825260208201905092915050565b600082825260208201905092915050565b600081905092915050565b600082825260208201905092915050565b6000614fb08261505e565b9150614fbb8361505e565b9250827fffffffffffffffffffffffffffffffffffffffffffffffffffffffffffffffff03821115614ff057614fef61512c565b5b828201905092915050565b60006150068261503e565b9050919050565b60006150188261503e565b9050919050565b60008115159050919050565b6000819050615039826157f9565b919050565b600073ffffffffffffffffffffffffffffffffffffffff82169050919050565b6000819050919050565b60006150738261508c565b9050919050565b60006150858261502b565b9050919050565b60006150978261509e565b9050919050565b60006150a98261503e565b9050919050565b60005b838110156150ce5780820151818401526020810190506150b3565b838111156150dd576000848401525b50505050565b60006150ee8261505e565b91507fffffffffffffffffffffffffffffffffffffffffffffffffffffffffffffffff8214156151215761512061512c565b5b600182019050919050565b7f4e487b7100000000000000000000000000000000000000000000000000000000600052601160045260246000fd5b7f4e487b7100000000000000000000000000000000000000000000000000000000600052602160045260246000fd5b6000601f19601f8301169050919050565b7f4f66666572657220646f6573206e6f74206861766520656e6f75676820746f6b60008201527f656e730000000000000000000000000000000000000000000000000000000000602082015250565b7f4163636570746f72206e6f206c6f6e676572206f776e732074686973204e4654600082015250565b7f4f66666572204e4654206164647265737320616e64204944206172726179732060008201527f617265206e6f74207468652073616d65206c656e677468000000000000000000602082015250565b7f546172676574206164647265737320697320696e76616c696400000000000000600082015250565b7f4f66666572657220686173206e6f7420616c6c6f77656420656e6f756768207460008201527f6f6b656e73000000000000000000000000000000000000000000000000000000602082015250565b7f4163636570746f7220686173206e6f7420616c6c6f77656420656e6f7567682060008201527f746f6b656e730000000000000000000000000000000000000000000000000000602082015250565b7f4163636570746f7220686173206e6f7420617070726f76656420616c6c20636f60008201527f6c6c656374696f6e7320696e2074726164650000000000000000000000000000602082015250565b7f4f666665726572206e6f206c6f6e676572206f776e7320616e204e465420696e60008201527f2074686520747261646500000000000000000000000000000000000000000000602082015250565b7f416464726573733a20696e73756666696369656e742062616c616e636520666f60008201527f722063616c6c0000000000000000000000000000000000000000000000000000602082015250565b7f4e6f7420656e6f7567682065746820696e20636f6e7472616374000000000000600082015250565b7f4f6666657220616d6f756e74206973206e6f7420657175616c20746f2074686560008201527f20616d6f756e74206f66204554482073656e7400000000000000000000000000602082015250565b7f4163636570746f7220646f6573206e6f74206861766520656e6f75676820746f60008201527f6b656e7300000000000000000000000000000000000000000000000000000000602082015250565b7f54686973206f66666572206973206e6f206c6f6e67657220617661696c61626c60008201527f6500000000000000000000000000000000000000000000000000000000000000602082015250565b7f4f66666572206973206e6f7420696e207468652053454e542073746174650000600082015250565b7f54686973206f6666657220776173206e6f742073656e7420746f20796f750000600082015250565b7f4f6666657220636f696e206164647265737320616e6420616d6f756e7420617260008201527f7261797320617265206e6f74207468652073616d65206c656e67746800000000602082015250565b7f4f66666572206e6f74206372656174656420627920796f750000000000000000600082015250565b7f416464726573733a2063616c6c20746f206e6f6e2d636f6e7472616374000000600082015250565b7f4f6666657220616d6f756e74206973206e6f7420657175616c20746f2074686560008201527f204554482073656e740000000000000000000000000000000000000000000000602082015250565b7f41736b204e4654206164647265737320616e642049442061727261797320617260008201527f65206e6f74207468652073616d65206c656e6774680000000000000000000000602082015250565b7f5361666545524332303a204552433230206f7065726174696f6e20646964206e60008201527f6f74207375636365656400000000000000000000000000000000000000000000602082015250565b7f41736b20636f696e206164647265737320616e6420616d6f756e74206172726160008201527f797320617265206e6f74207468652073616d65206c656e677468000000000000602082015250565b7f4f66666572657220686173206e6f7420617070726f76656420616c6c20636f6c60008201527f6c656374696f6e7320696e207472616465000000000000000000000000000000602082015250565b7f546f6b656e207472616e736665722063616c6c20646964206e6f74207472616e60008201527f7366657220657870656374656420616d6f756e74000000000000000000000000602082015250565b6004811061580a5761580961515b565b5b50565b61581681614ffb565b811461582157600080fd5b50565b61582d8161500d565b811461583857600080fd5b50565b6158448161501f565b811461584f57600080fd5b50565b61585b8161505e565b811461586657600080fd5b5056fea2646970667358221220ed29cf2b6e64b573e9bab23304330f9968d53acd00744d8ae4bc3f6aee9f745064736f6c63430008040033",
  "linkReferences": {},
  "deployedLinkReferences": {}
}