{
  "_format": "hh-sol-artifact-1",
  "contractName": "BarterMarket",
  "sourceName": "contracts/BarterMarket.sol",
  "abi": [
    {
      "inputs": [],
      "stateMutability": "nonpayable",
      "type": "constructor"
    },
    {
      "anonymous": false,
      "inputs": [
        {
          "indexed": false,
          "internalType": "uint256",
          "name": "offerId",
          "type": "uint256"
        },
        {
          "indexed": false,
          "internalType": "address",
          "name": "offerer",
          "type": "address"
        },
        {
          "indexed": false,
          "internalType": "address",
          "name": "target",
          "type": "address"
        }
      ],
      "name": "TradeOfferAccepted",
      "type": "event"
    },
    {
      "anonymous": false,
      "inputs": [
        {
          "indexed": false,
          "internalType": "uint256",
          "name": "offerId",
          "type": "uint256"
        },
        {
          "indexed": false,
          "internalType": "address",
          "name": "offerer",
          "type": "address"
        },
        {
          "indexed": false,
          "internalType": "address",
          "name": "target",
          "type": "address"
        }
      ],
      "name": "TradeOfferCreated",
      "type": "event"
    },
    {
      "anonymous": false,
      "inputs": [
        {
          "indexed": false,
          "internalType": "uint256",
          "name": "offerId",
          "type": "uint256"
        },
        {
          "indexed": false,
          "internalType": "address",
          "name": "offerer",
          "type": "address"
        },
        {
          "indexed": false,
          "internalType": "address",
          "name": "target",
          "type": "address"
        }
      ],
      "name": "TradeOfferRecalled",
      "type": "event"
    },
    {
      "inputs": [
        {
          "internalType": "uint256",
          "name": "_offerId",
          "type": "uint256"
        }
      ],
      "name": "acceptOffer",
      "outputs": [],
      "stateMutability": "payable",
      "type": "function"
    },
    {
      "inputs": [
        {
          "internalType": "address payable",
          "name": "_target",
          "type": "address"
        },
        {
          "components": [
            {
              "internalType": "uint256",
              "name": "offeredEther",
              "type": "uint256"
            },
            {
              "components": [
                {
                  "internalType": "uint256[]",
                  "name": "amounts",
                  "type": "uint256[]"
                },
                {
                  "internalType": "address[]",
                  "name": "contractAddresses",
                  "type": "address[]"
                }
              ],
              "internalType": "struct BarterMarket.CoinBundle",
              "name": "tokens",
              "type": "tuple"
            },
            {
              "components": [
                {
                  "internalType": "uint256[]",
                  "name": "ids",
                  "type": "uint256[]"
                },
                {
                  "internalType": "address[]",
                  "name": "contractAddresses",
                  "type": "address[]"
                }
              ],
              "internalType": "struct BarterMarket.NFTBundle",
              "name": "nfts",
              "type": "tuple"
            }
          ],
          "internalType": "struct BarterMarket.Bundle",
          "name": "offerBundle",
          "type": "tuple"
        },
        {
          "components": [
            {
              "internalType": "uint256",
              "name": "offeredEther",
              "type": "uint256"
            },
            {
              "components": [
                {
                  "internalType": "uint256[]",
                  "name": "amounts",
                  "type": "uint256[]"
                },
                {
                  "internalType": "address[]",
                  "name": "contractAddresses",
                  "type": "address[]"
                }
              ],
              "internalType": "struct BarterMarket.CoinBundle",
              "name": "tokens",
              "type": "tuple"
            },
            {
              "components": [
                {
                  "internalType": "uint256[]",
                  "name": "ids",
                  "type": "uint256[]"
                },
                {
                  "internalType": "address[]",
                  "name": "contractAddresses",
                  "type": "address[]"
                }
              ],
              "internalType": "struct BarterMarket.NFTBundle",
              "name": "nfts",
              "type": "tuple"
            }
          ],
          "internalType": "struct BarterMarket.Bundle",
          "name": "askBundle",
          "type": "tuple"
        }
      ],
      "name": "createOffer",
      "outputs": [],
      "stateMutability": "payable",
      "type": "function"
    },
    {
      "inputs": [],
      "name": "offerCount",
      "outputs": [
        {
          "internalType": "uint256",
          "name": "",
          "type": "uint256"
        }
      ],
      "stateMutability": "view",
      "type": "function"
    },
    {
      "inputs": [
        {
          "internalType": "uint256",
          "name": "",
          "type": "uint256"
        }
      ],
      "name": "offers",
      "outputs": [
        {
          "internalType": "address payable",
          "name": "offerer",
          "type": "address"
        },
        {
          "internalType": "address payable",
          "name": "target",
          "type": "address"
        },
        {
          "components": [
            {
              "internalType": "uint256",
              "name": "offeredEther",
              "type": "uint256"
            },
            {
              "components": [
                {
                  "internalType": "uint256[]",
                  "name": "amounts",
                  "type": "uint256[]"
                },
                {
                  "internalType": "address[]",
                  "name": "contractAddresses",
                  "type": "address[]"
                }
              ],
              "internalType": "struct BarterMarket.CoinBundle",
              "name": "tokens",
              "type": "tuple"
            },
            {
              "components": [
                {
                  "internalType": "uint256[]",
                  "name": "ids",
                  "type": "uint256[]"
                },
                {
                  "internalType": "address[]",
                  "name": "contractAddresses",
                  "type": "address[]"
                }
              ],
              "internalType": "struct BarterMarket.NFTBundle",
              "name": "nfts",
              "type": "tuple"
            }
          ],
          "internalType": "struct BarterMarket.Bundle",
          "name": "offerBundle",
          "type": "tuple"
        },
        {
          "components": [
            {
              "internalType": "uint256",
              "name": "offeredEther",
              "type": "uint256"
            },
            {
              "components": [
                {
                  "internalType": "uint256[]",
                  "name": "amounts",
                  "type": "uint256[]"
                },
                {
                  "internalType": "address[]",
                  "name": "contractAddresses",
                  "type": "address[]"
                }
              ],
              "internalType": "struct BarterMarket.CoinBundle",
              "name": "tokens",
              "type": "tuple"
            },
            {
              "components": [
                {
                  "internalType": "uint256[]",
                  "name": "ids",
                  "type": "uint256[]"
                },
                {
                  "internalType": "address[]",
                  "name": "contractAddresses",
                  "type": "address[]"
                }
              ],
              "internalType": "struct BarterMarket.NFTBundle",
              "name": "nfts",
              "type": "tuple"
            }
          ],
          "internalType": "struct BarterMarket.Bundle",
          "name": "askBundle",
          "type": "tuple"
        },
        {
          "internalType": "enum BarterMarket.State",
          "name": "state",
          "type": "uint8"
        }
      ],
      "stateMutability": "view",
      "type": "function"
    },
    {
      "inputs": [
        {
          "internalType": "uint256",
          "name": "_offerId",
          "type": "uint256"
        }
      ],
      "name": "recallOffer",
      "outputs": [],
      "stateMutability": "nonpayable",
      "type": "function"
    }
  ],
  "bytecode": "0x608060405234801561001057600080fd5b506139f7806100206000396000f3fe60806040526004361061004a5760003560e01c80631115c24d1461004f578063298d635a1461007a5780638a72ea6a146100a3578063c2bfc6dc146100e4578063c815729d14610100575b600080fd5b34801561005b57600080fd5b5061006461011c565b604051610071919061318b565b60405180910390f35b34801561008657600080fd5b506100a1600480360381019061009c919061294a565b610122565b005b3480156100af57600080fd5b506100ca60048036038101906100c5919061294a565b6103d5565b6040516100db959493929190612e8a565b60405180910390f35b6100fe60048036038101906100f991906128a2565b610868565b005b61011a6004803603810190610115919061294a565b611102565b005b60005481565b3373ffffffffffffffffffffffffffffffffffffffff166001600083815260200190815260200160002060000160009054906101000a900473ffffffffffffffffffffffffffffffffffffffff1673ffffffffffffffffffffffffffffffffffffffff16146101c6576040517f08c379a00000000000000000000000000000000000000000000000000000000081526004016101bd906130eb565b60405180910390fd5b60006003811115610200577f4e487b7100000000000000000000000000000000000000000000000000000000600052602160045260246000fd5b60016000838152602001908152602001600020600c0160009054906101000a900460ff16600381111561025c577f4e487b7100000000000000000000000000000000000000000000000000000000600052602160045260246000fd5b1461029c576040517f08c379a000000000000000000000000000000000000000000000000000000000815260040161029390612feb565b60405180910390fd5b600360016000838152602001908152602001600020600c0160006101000a81548160ff021916908360038111156102fc577f4e487b7100000000000000000000000000000000000000000000000000000000600052602160045260246000fd5b02179055507f9d87acce212d7be73ba564d7251018920ec7cf3a448915c8ed151f2c746ab15f81336001600085815260200190815260200160002060010160009054906101000a900473ffffffffffffffffffffffffffffffffffffffff1660405161036a939291906131dd565b60405180910390a13373ffffffffffffffffffffffffffffffffffffffff166108fc60016000848152602001908152602001600020600201600001549081150290604051600060405180830381858888f193505050501580156103d1573d6000803e3d6000fd5b5050565b60016020528060005260406000206000915090508060000160009054906101000a900473ffffffffffffffffffffffffffffffffffffffff16908060010160009054906101000a900473ffffffffffffffffffffffffffffffffffffffff1690806002016040518060600160405290816000820154815260200160018201604051806040016040529081600082018054806020026020016040519081016040528092919081815260200182805480156104ad57602002820191906000526020600020905b815481526020019060010190808311610499575b505050505081526020016001820180548060200260200160405190810160405280929190818152602001828054801561053b57602002820191906000526020600020905b8160009054906101000a900473ffffffffffffffffffffffffffffffffffffffff1673ffffffffffffffffffffffffffffffffffffffff16815260200190600101908083116104f1575b505050505081525050815260200160038201604051806040016040529081600082018054806020026020016040519081016040528092919081815260200182805480156105a757602002820191906000526020600020905b815481526020019060010190808311610593575b505050505081526020016001820180548060200260200160405190810160405280929190818152602001828054801561063557602002820191906000526020600020905b8160009054906101000a900473ffffffffffffffffffffffffffffffffffffffff1673ffffffffffffffffffffffffffffffffffffffff16815260200190600101908083116105eb575b5050505050815250508152505090806007016040518060600160405290816000820154815260200160018201604051806040016040529081600082018054806020026020016040519081016040528092919081815260200182805480156106bb57602002820191906000526020600020905b8154815260200190600101908083116106a7575b505050505081526020016001820180548060200260200160405190810160405280929190818152602001828054801561074957602002820191906000526020600020905b8160009054906101000a900473ffffffffffffffffffffffffffffffffffffffff1673ffffffffffffffffffffffffffffffffffffffff16815260200190600101908083116106ff575b505050505081525050815260200160038201604051806040016040529081600082018054806020026020016040519081016040528092919081815260200182805480156107b557602002820191906000526020600020905b8154815260200190600101908083116107a1575b505050505081526020016001820180548060200260200160405190810160405280929190818152602001828054801561084357602002820191906000526020600020905b8160009054906101000a900473ffffffffffffffffffffffffffffffffffffffff1673ffffffffffffffffffffffffffffffffffffffff16815260200190600101908083116107f9575b505050505081525050815250509080600c0160009054906101000a900460ff16905085565b600082600001359050600083806020019061088391906132c2565b80602001906108929190613214565b80806020026020016040519081016040528093929190818152602001838360200280828437600081840152601f19601f82011690508083019250505050505050905060008480602001906108e691906132c2565b80600001906108f5919061326b565b80806020026020016040519081016040528093929190818152602001838360200280828437600081840152601f19601f820116905080830192505050505050509050600085806040019061094991906132e6565b80602001906109589190613214565b80806020026020016040519081016040528093929190818152602001838360200280828437600081840152601f19601f82011690508083019250505050505050905060008680604001906109ac91906132e6565b80600001906109bb919061326b565b80806020026020016040519081016040528093929190818152602001838360200280828437600081840152601f19601f8201169050808301925050505050505090506000866000013590506000878060200190610a1891906132c2565b8060200190610a279190613214565b80806020026020016040519081016040528093929190818152602001838360200280828437600081840152601f19601f8201169050808301925050505050505090506000888060200190610a7b91906132c2565b8060000190610a8a919061326b565b80806020026020016040519081016040528093929190818152602001838360200280828437600081840152601f19601f8201169050808301925050505050505090506000898060400190610ade91906132e6565b8060200190610aed9190613214565b80806020026020016040519081016040528093929190818152602001838360200280828437600081840152601f19601f82011690508083019250505050505050905060008a8060400190610b4191906132e6565b8060000190610b50919061326b565b80806020026020016040519081016040528093929190818152602001838360200280828437600081840152601f19601f820116905080830192505050505050509050600073ffffffffffffffffffffffffffffffffffffffff168d73ffffffffffffffffffffffffffffffffffffffff161415610c02576040517f08c379a0000000000000000000000000000000000000000000000000000000008152600401610bf990612f6b565b60405180910390fd5b348a14610c44576040517f08c379a0000000000000000000000000000000000000000000000000000000008152600401610c3b9061310b565b60405180910390fd5b8751895114610c88576040517f08c379a0000000000000000000000000000000000000000000000000000000008152600401610c7f9061306b565b60405180910390fd5b8551875114610ccc576040517f08c379a0000000000000000000000000000000000000000000000000000000008152600401610cc390612f4b565b60405180910390fd5b8251845114610d10576040517f08c379a0000000000000000000000000000000000000000000000000000000008152600401610d079061316b565b60405180910390fd5b8051825114610d54576040517f08c379a0000000000000000000000000000000000000000000000000000000008152600401610d4b9061312b565b60405180910390fd5b6040518060a001604052803373ffffffffffffffffffffffffffffffffffffffff1681526020018e73ffffffffffffffffffffffffffffffffffffffff16815260200160405180606001604052808d815260200160405180604001604052808d81526020018e815250815260200160405180604001604052808b81526020018c815250815250815260200160405180606001604052808881526020016040518060400160405280888152602001898152508152602001604051806040016040528086815260200187815250815250815260200160006003811115610e61577f4e487b7100000000000000000000000000000000000000000000000000000000600052602160045260246000fd5b815250600160008054815260200190815260200160002060008201518160000160006101000a81548173ffffffffffffffffffffffffffffffffffffffff021916908373ffffffffffffffffffffffffffffffffffffffff16021790555060208201518160010160006101000a81548173ffffffffffffffffffffffffffffffffffffffff021916908373ffffffffffffffffffffffffffffffffffffffff160217905550604082015181600201600082015181600001556020820151816001016000820151816000019080519060200190610f3e929190612701565b506020820151816001019080519060200190610f5b92919061274e565b5050506040820151816003016000820151816000019080519060200190610f83929190612701565b506020820151816001019080519060200190610fa092919061274e565b5050505050606082015181600701600082015181600001556020820151816001016000820151816000019080519060200190610fdd929190612701565b506020820151816001019080519060200190610ffa92919061274e565b5050506040820151816003016000820151816000019080519060200190611022929190612701565b50602082015181600101908051906020019061103f92919061274e565b5050505050608082015181600c0160006101000a81548160ff02191690836003811115611095577f4e487b7100000000000000000000000000000000000000000000000000000000600052602160045260246000fd5b02179055509050507f8038858435123f513e04505978325fc71ce1b97b58443a57172cb7ed1f62c82e600054338f6040516110d2939291906131dd565b60405180910390a160016000808282546110ec919061338d565b9250508190555050505050505050505050505050565b6000600160008381526020019081526020016000206040518060a00160405290816000820160009054906101000a900473ffffffffffffffffffffffffffffffffffffffff1673ffffffffffffffffffffffffffffffffffffffff1673ffffffffffffffffffffffffffffffffffffffff1681526020016001820160009054906101000a900473ffffffffffffffffffffffffffffffffffffffff1673ffffffffffffffffffffffffffffffffffffffff1673ffffffffffffffffffffffffffffffffffffffff1681526020016002820160405180606001604052908160008201548152602001600182016040518060400160405290816000820180548060200260200160405190810160405280929190818152602001828054801561124757602002820191906000526020600020905b815481526020019060010190808311611233575b50505050508152602001600182018054806020026020016040519081016040528092919081815260200182805480156112d557602002820191906000526020600020905b8160009054906101000a900473ffffffffffffffffffffffffffffffffffffffff1673ffffffffffffffffffffffffffffffffffffffff168152602001906001019080831161128b575b5050505050815250508152602001600382016040518060400160405290816000820180548060200260200160405190810160405280929190818152602001828054801561134157602002820191906000526020600020905b81548152602001906001019080831161132d575b50505050508152602001600182018054806020026020016040519081016040528092919081815260200182805480156113cf57602002820191906000526020600020905b8160009054906101000a900473ffffffffffffffffffffffffffffffffffffffff1673ffffffffffffffffffffffffffffffffffffffff1681526020019060010190808311611385575b5050505050815250508152505081526020016007820160405180606001604052908160008201548152602001600182016040518060400160405290816000820180548060200260200160405190810160405280929190818152602001828054801561145957602002820191906000526020600020905b815481526020019060010190808311611445575b50505050508152602001600182018054806020026020016040519081016040528092919081815260200182805480156114e757602002820191906000526020600020905b8160009054906101000a900473ffffffffffffffffffffffffffffffffffffffff1673ffffffffffffffffffffffffffffffffffffffff168152602001906001019080831161149d575b5050505050815250508152602001600382016040518060400160405290816000820180548060200260200160405190810160405280929190818152602001828054801561155357602002820191906000526020600020905b81548152602001906001019080831161153f575b50505050508152602001600182018054806020026020016040519081016040528092919081815260200182805480156115e157602002820191906000526020600020905b8160009054906101000a900473ffffffffffffffffffffffffffffffffffffffff1673ffffffffffffffffffffffffffffffffffffffff1681526020019060010190808311611597575b505050505081525050815250508152602001600c820160009054906101000a900460ff16600381111561163d577f4e487b7100000000000000000000000000000000000000000000000000000000600052602160045260246000fd5b6003811115611675577f4e487b7100000000000000000000000000000000000000000000000000000000600052602160045260246000fd5b8152505090503373ffffffffffffffffffffffffffffffffffffffff16816020015173ffffffffffffffffffffffffffffffffffffffff16146116ed576040517f08c379a00000000000000000000000000000000000000000000000000000000081526004016116e49061302b565b60405180910390fd5b3481606001516000015114611737576040517f08c379a000000000000000000000000000000000000000000000000000000000815260040161172e90612fab565b60405180910390fd5b60006003811115611771577f4e487b7100000000000000000000000000000000000000000000000000000000600052602160045260246000fd5b816080015160038111156117ae577f4e487b7100000000000000000000000000000000000000000000000000000000600052602160045260246000fd5b146117ee576040517f08c379a00000000000000000000000000000000000000000000000000000000081526004016117e590612fcb565b60405180910390fd5b600260016000848152602001908152602001600020600c0160006101000a81548160ff0219169083600381111561184e577f4e487b7100000000000000000000000000000000000000000000000000000000600052602160045260246000fd5b0217905550600081606001516020015190506000826060015160400151905060005b826020015151811015611bde576000836020015182815181106118bc577f4e487b7100000000000000000000000000000000000000000000000000000000600052603260045260246000fd5b6020026020010151905083600001518281518110611903577f4e487b7100000000000000000000000000000000000000000000000000000000600052603260045260246000fd5b60200260200101518173ffffffffffffffffffffffffffffffffffffffff166370a0823187602001516040518263ffffffff1660e01b81526004016119489190612e46565b60206040518083038186803b15801561196057600080fd5b505afa158015611974573d6000803e3d6000fd5b505050506040513d601f19601f820116820180604052508101906119989190612973565b10156119d9576040517f08c379a00000000000000000000000000000000000000000000000000000000081526004016119d09061314b565b60405180910390fd5b83600001518281518110611a16577f4e487b7100000000000000000000000000000000000000000000000000000000600052603260045260246000fd5b60200260200101518173ffffffffffffffffffffffffffffffffffffffff1663dd62ed3e8760200151306040518363ffffffff1660e01b8152600401611a5d929190612e61565b60206040518083038186803b158015611a7557600080fd5b505afa158015611a89573d6000803e3d6000fd5b505050506040513d601f19601f82011682018060405250810190611aad9190612973565b1015611aee576040517f08c379a0000000000000000000000000000000000000000000000000000000008152600401611ae59061300b565b60405180910390fd5b8073ffffffffffffffffffffffffffffffffffffffff166323b872dd8660200151876000015187600001518681518110611b51577f4e487b7100000000000000000000000000000000000000000000000000000000600052603260045260246000fd5b60200260200101516040518463ffffffff1660e01b8152600401611b7793929190612eeb565b602060405180830381600087803b158015611b9157600080fd5b505af1158015611ba5573d6000803e3d6000fd5b505050506040513d601f19601f82011682018060405250810190611bc99190612921565b50508080611bd690613498565b915050611870565b5060005b816020015151811015611f0b57600082602001518281518110611c2e577f4e487b7100000000000000000000000000000000000000000000000000000000600052603260045260246000fd5b602002602001015190503373ffffffffffffffffffffffffffffffffffffffff168173ffffffffffffffffffffffffffffffffffffffff16636352211e85600001518581518110611ca8577f4e487b7100000000000000000000000000000000000000000000000000000000600052603260045260246000fd5b60200260200101516040518263ffffffff1660e01b8152600401611ccc919061318b565b60206040518083038186803b158015611ce457600080fd5b505afa158015611cf8573d6000803e3d6000fd5b505050506040513d601f19601f82011682018060405250810190611d1c9190612879565b73ffffffffffffffffffffffffffffffffffffffff1614611d72576040517f08c379a0000000000000000000000000000000000000000000000000000000008152600401611d6990612f8b565b60405180910390fd5b8073ffffffffffffffffffffffffffffffffffffffff1663e985e9c533306040518363ffffffff1660e01b8152600401611dad929190612f22565b60206040518083038186803b158015611dc557600080fd5b505afa158015611dd9573d6000803e3d6000fd5b505050506040513d601f19601f82011682018060405250810190611dfd9190612921565b611e3c576040517f08c379a0000000000000000000000000000000000000000000000000000000008152600401611e339061308b565b60405180910390fd5b8073ffffffffffffffffffffffffffffffffffffffff166342842e0e8660200151876000015186600001518681518110611e9f577f4e487b7100000000000000000000000000000000000000000000000000000000600052603260045260246000fd5b60200260200101516040518463ffffffff1660e01b8152600401611ec593929190612eeb565b600060405180830381600087803b158015611edf57600080fd5b505af1158015611ef3573d6000803e3d6000fd5b50505050508080611f0390613498565b915050611be2565b50600083604001516020015190506000846040015160400151905060005b82602001515181101561229757600083602001518281518110611f75577f4e487b7100000000000000000000000000000000000000000000000000000000600052603260045260246000fd5b6020026020010151905083600001518281518110611fbc577f4e487b7100000000000000000000000000000000000000000000000000000000600052603260045260246000fd5b60200260200101518173ffffffffffffffffffffffffffffffffffffffff166370a0823189600001516040518263ffffffff1660e01b81526004016120019190612e46565b60206040518083038186803b15801561201957600080fd5b505afa15801561202d573d6000803e3d6000fd5b505050506040513d601f19601f820116820180604052508101906120519190612973565b1015612092576040517f08c379a00000000000000000000000000000000000000000000000000000000081526004016120899061314b565b60405180910390fd5b836000015182815181106120cf577f4e487b7100000000000000000000000000000000000000000000000000000000600052603260045260246000fd5b60200260200101518173ffffffffffffffffffffffffffffffffffffffff1663dd62ed3e8960000151306040518363ffffffff1660e01b8152600401612116929190612e61565b60206040518083038186803b15801561212e57600080fd5b505afa158015612142573d6000803e3d6000fd5b505050506040513d601f19601f820116820180604052508101906121669190612973565b10156121a7576040517f08c379a000000000000000000000000000000000000000000000000000000000815260040161219e906130ab565b60405180910390fd5b8073ffffffffffffffffffffffffffffffffffffffff166323b872dd886000015189602001518760000151868151811061220a577f4e487b7100000000000000000000000000000000000000000000000000000000600052603260045260246000fd5b60200260200101516040518463ffffffff1660e01b815260040161223093929190612eeb565b602060405180830381600087803b15801561224a57600080fd5b505af115801561225e573d6000803e3d6000fd5b505050506040513d601f19601f820116820180604052508101906122829190612921565b5050808061228f90613498565b915050611f29565b5060005b8160200151518110156125cc576000826020015182815181106122e7577f4e487b7100000000000000000000000000000000000000000000000000000000600052603260045260246000fd5b60200260200101519050866000015173ffffffffffffffffffffffffffffffffffffffff168173ffffffffffffffffffffffffffffffffffffffff16636352211e85600001518581518110612365577f4e487b7100000000000000000000000000000000000000000000000000000000600052603260045260246000fd5b60200260200101516040518263ffffffff1660e01b8152600401612389919061318b565b60206040518083038186803b1580156123a157600080fd5b505afa1580156123b5573d6000803e3d6000fd5b505050506040513d601f19601f820116820180604052508101906123d99190612879565b73ffffffffffffffffffffffffffffffffffffffff161461242f576040517f08c379a00000000000000000000000000000000000000000000000000000000081526004016124269061304b565b60405180910390fd5b8073ffffffffffffffffffffffffffffffffffffffff1663e985e9c58860000151306040518363ffffffff1660e01b815260040161246e929190612e61565b60206040518083038186803b15801561248657600080fd5b505afa15801561249a573d6000803e3d6000fd5b505050506040513d601f19601f820116820180604052508101906124be9190612921565b6124fd576040517f08c379a00000000000000000000000000000000000000000000000000000000081526004016124f49061308b565b60405180910390fd5b8073ffffffffffffffffffffffffffffffffffffffff166323b872dd8860000151896020015186600001518681518110612560577f4e487b7100000000000000000000000000000000000000000000000000000000600052603260045260246000fd5b60200260200101516040518463ffffffff1660e01b815260040161258693929190612eeb565b600060405180830381600087803b1580156125a057600080fd5b505af11580156125b4573d6000803e3d6000fd5b505050505080806125c490613498565b91505061229b565b50478560400151600001511115612618576040517f08c379a000000000000000000000000000000000000000000000000000000000815260040161260f906130cb565b60405180910390fd5b846000015173ffffffffffffffffffffffffffffffffffffffff166108fc349081150290604051600060405180830381858888f19350505050158015612662573d6000803e3d6000fd5b50846020015173ffffffffffffffffffffffffffffffffffffffff166108fc8660400151600001519081150290604051600060405180830381858888f193505050501580156126b5573d6000803e3d6000fd5b507f1368b7350e5e5d1defe357e4992c04f76331b806f36fb57436abb2354d50353386866000015187602001516040516126f1939291906131a6565b60405180910390a1505050505050565b82805482825590600052602060002090810192821561273d579160200282015b8281111561273c578251825591602001919060010190612721565b5b50905061274a91906127d8565b5090565b8280548282559060005260206000209081019282156127c7579160200282015b828111156127c65782518260006101000a81548173ffffffffffffffffffffffffffffffffffffffff021916908373ffffffffffffffffffffffffffffffffffffffff1602179055509160200191906001019061276e565b5b5090506127d491906127d8565b5090565b5b808211156127f15760008160009055506001016127d9565b5090565b60008151905061280481613965565b92915050565b6000813590506128198161397c565b92915050565b60008151905061282e81613993565b92915050565b60006060828403121561284657600080fd5b81905092915050565b60008135905061285e816139aa565b92915050565b600081519050612873816139aa565b92915050565b60006020828403121561288b57600080fd5b6000612899848285016127f5565b91505092915050565b6000806000606084860312156128b757600080fd5b60006128c58682870161280a565b935050602084013567ffffffffffffffff8111156128e257600080fd5b6128ee86828701612834565b925050604084013567ffffffffffffffff81111561290b57600080fd5b61291786828701612834565b9150509250925092565b60006020828403121561293357600080fd5b60006129418482850161281f565b91505092915050565b60006020828403121561295c57600080fd5b600061296a8482850161284f565b91505092915050565b60006020828403121561298557600080fd5b600061299384828501612864565b91505092915050565b60006129a883836129ea565b60208301905092915050565b60006129c08383612e28565b60208301905092915050565b6129d581613450565b82525050565b6129e4816133f5565b82525050565b6129f3816133e3565b82525050565b612a02816133e3565b82525050565b6000612a138261332a565b612a1d818561335a565b9350612a288361330a565b8060005b83811015612a59578151612a40888261299c565b9750612a4b83613340565b925050600181019050612a2c565b5085935050505092915050565b6000612a7182613335565b612a7b818561336b565b9350612a868361331a565b8060005b83811015612ab7578151612a9e88826129b4565b9750612aa98361334d565b925050600181019050612a8a565b5085935050505092915050565b612acd81613462565b82525050565b6000612ae060378361337c565b9150612aeb8261353f565b604082019050919050565b6000612b0360198361337c565b9150612b0e8261358e565b602082019050919050565b6000612b26601a8361337c565b9150612b31826135b7565b602082019050919050565b6000612b4960338361337c565b9150612b54826135e0565b604082019050919050565b6000612b6c60218361337c565b9150612b778261362f565b604082019050919050565b6000612b8f601e8361337c565b9150612b9a8261367e565b602082019050919050565b6000612bb260198361337c565b9150612bbd826136a7565b602082019050919050565b6000612bd5601e8361337c565b9150612be0826136d0565b602082019050919050565b6000612bf8601c8361337c565b9150612c03826136f9565b602082019050919050565b6000612c1b603c8361337c565b9150612c2682613722565b604082019050919050565b6000612c3e60228361337c565b9150612c4982613771565b604082019050919050565b6000612c6160198361337c565b9150612c6c826137c0565b602082019050919050565b6000612c84601b8361337c565b9150612c8f826137e9565b602082019050919050565b6000612ca760188361337c565b9150612cb282613812565b602082019050919050565b6000612cca60298361337c565b9150612cd58261383b565b604082019050919050565b6000612ced60358361337c565b9150612cf88261388a565b604082019050919050565b6000612d1060118361337c565b9150612d1b826138d9565b602082019050919050565b6000612d33603a8361337c565b9150612d3e82613902565b604082019050919050565b6000606083016000830151612d616000860182612e28565b5060208301518482036020860152612d798282612da0565b91505060408301518482036040860152612d938282612de4565b9150508091505092915050565b60006040830160008301518482036000860152612dbd8282612a66565b91505060208301518482036020860152612dd78282612a08565b9150508091505092915050565b60006040830160008301518482036000860152612e018282612a66565b91505060208301518482036020860152612e1b8282612a08565b9150508091505092915050565b612e3181613446565b82525050565b612e4081613446565b82525050565b6000602082019050612e5b60008301846129cc565b92915050565b6000604082019050612e7660008301856129cc565b612e8360208301846129f9565b9392505050565b600060a082019050612e9f60008301886129db565b612eac60208301876129db565b8181036040830152612ebe8186612d49565b90508181036060830152612ed28185612d49565b9050612ee16080830184612ac4565b9695505050505050565b6000606082019050612f0060008301866129cc565b612f0d60208301856129cc565b612f1a6040830184612e37565b949350505050565b6000604082019050612f3760008301856129f9565b612f4460208301846129f9565b9392505050565b60006020820190508181036000830152612f6481612ad3565b9050919050565b60006020820190508181036000830152612f8481612af6565b9050919050565b60006020820190508181036000830152612fa481612b19565b9050919050565b60006020820190508181036000830152612fc481612b3c565b9050919050565b60006020820190508181036000830152612fe481612b5f565b9050919050565b6000602082019050818103600083015261300481612b82565b9050919050565b6000602082019050818103600083015261302481612ba5565b9050919050565b6000602082019050818103600083015261304481612bc8565b9050919050565b6000602082019050818103600083015261306481612beb565b9050919050565b6000602082019050818103600083015261308481612c0e565b9050919050565b600060208201905081810360008301526130a481612c31565b9050919050565b600060208201905081810360008301526130c481612c54565b9050919050565b600060208201905081810360008301526130e481612c77565b9050919050565b6000602082019050818103600083015261310481612c9a565b9050919050565b6000602082019050818103600083015261312481612cbd565b9050919050565b6000602082019050818103600083015261314481612ce0565b9050919050565b6000602082019050818103600083015261316481612d03565b9050919050565b6000602082019050818103600083015261318481612d26565b9050919050565b60006020820190506131a06000830184612e37565b92915050565b60006060820190506131bb6000830186612e37565b6131c860208301856129cc565b6131d560408301846129cc565b949350505050565b60006060820190506131f26000830186612e37565b6131ff60208301856129f9565b61320c60408301846129cc565b949350505050565b6000808335600160200384360303811261322d57600080fd5b80840192508235915067ffffffffffffffff82111561324b57600080fd5b60208301925060208202360383131561326357600080fd5b509250929050565b6000808335600160200384360303811261328457600080fd5b80840192508235915067ffffffffffffffff8211156132a257600080fd5b6020830192506020820236038313156132ba57600080fd5b509250929050565b6000823560016040038336030381126132da57600080fd5b80830191505092915050565b6000823560016040038336030381126132fe57600080fd5b80830191505092915050565b6000819050602082019050919050565b6000819050602082019050919050565b600081519050919050565b600081519050919050565b6000602082019050919050565b6000602082019050919050565b600082825260208201905092915050565b600082825260208201905092915050565b600082825260208201905092915050565b600061339882613446565b91506133a383613446565b9250827fffffffffffffffffffffffffffffffffffffffffffffffffffffffffffffffff038211156133d8576133d76134e1565b5b828201905092915050565b60006133ee82613426565b9050919050565b600061340082613426565b9050919050565b60008115159050919050565b600081905061342182613951565b919050565b600073ffffffffffffffffffffffffffffffffffffffff82169050919050565b6000819050919050565b600061345b82613474565b9050919050565b600061346d82613413565b9050919050565b600061347f82613486565b9050919050565b600061349182613426565b9050919050565b60006134a382613446565b91507fffffffffffffffffffffffffffffffffffffffffffffffffffffffffffffffff8214156134d6576134d56134e1565b5b600182019050919050565b7f4e487b7100000000000000000000000000000000000000000000000000000000600052601160045260246000fd5b7f4e487b7100000000000000000000000000000000000000000000000000000000600052602160045260246000fd5b7f4f66666572204e4654206164647265737320616e64204944206172726179732060008201527f617265206e6f74207468652073616d65206c656e677468000000000000000000602082015250565b7f546172676574206164647265737320697320696e76616c696400000000000000600082015250565b7f596f75206e6f206c6f6e676572206f776e2074686973206e6674000000000000600082015250565b7f4f6666657220616d6f756e74206973206e6f7420657175616c20746f2074686560008201527f20616d6f756e74206f66204554482073656e7400000000000000000000000000602082015250565b7f54686973206f66666572206973206e6f206c6f6e67657220617661696c61626c60008201527f6500000000000000000000000000000000000000000000000000000000000000602082015250565b7f4f66666572206973206e6f7420696e207468652053454e542073746174650000600082015250565b7f4e6f7420656e6f75676820616c6c6f77656420746f6b656e7300000000000000600082015250565b7f54686973206f6666657220776173206e6f742073656e7420746f20796f750000600082015250565b7f4e6f7420746865206f66666572657273204e465420616e796d6f726500000000600082015250565b7f4f6666657220636f696e206164647265737320616e6420616d6f756e7420617260008201527f7261797320617265206e6f74207468652073616d65206c656e67746800000000602082015250565b7f4e6f7420617070726f76656420666f7220616c6c204e4654207472616e73666560008201527f7273000000000000000000000000000000000000000000000000000000000000602082015250565b7f6e6f7420656e6f75676820616c6c6f77656420746f6b656e7300000000000000600082015250565b7f4e6f7420656e6f7567682065746820696e20636f6e7472616374210000000000600082015250565b7f4f66666572206e6f74206372656174656420627920796f750000000000000000600082015250565b7f4f6666657220616d6f756e74206973206e6f7420657175616c20746f2074686560008201527f204554482073656e740000000000000000000000000000000000000000000000602082015250565b7f41736b204e4654206164647265737320616e642049442061727261797320617260008201527f65206e6f74207468652073616d65206c656e6774680000000000000000000000602082015250565b7f4e6f7420656e6f75676820746f6b656e73000000000000000000000000000000600082015250565b7f41736b20636f696e206164647265737320616e6420616d6f756e74206172726160008201527f797320617265206e6f74207468652073616d65206c656e677468000000000000602082015250565b6004811061396257613961613510565b5b50565b61396e816133e3565b811461397957600080fd5b50565b613985816133f5565b811461399057600080fd5b50565b61399c81613407565b81146139a757600080fd5b50565b6139b381613446565b81146139be57600080fd5b5056fea26469706673582212204ad4cc4eee94fc257561e1e5a2c1d62b95280f3b4c9031816af3e5cc0501ee4464736f6c63430008040033",
  "linkReferences": {},
  "deployedLinkReferences": {}
}